******************************************************************************
                  TI ARM Linker PC v18.1.2                     
******************************************************************************
>> Linked Tue Nov 27 19:14:21 2018

OUTPUT FILE NAME:   <FirstPlaceRobot.out>
ENTRY POINT SYMBOL: "_c_int00"  address: 00006671


MEMORY CONFIGURATION

         name            origin    length      used     unused   attr    fill
----------------------  --------  ---------  --------  --------  ----  --------
  FLASH                 00000000   00040000  0000b3d2  00034c2e  R  X
  SRAM                  20000000   00008000  0000353e  00004ac2  RW X


SEGMENT ALLOCATION MAP

run origin  load origin   length   init length attrs members
----------  ----------- ---------- ----------- ----- -------
00000000    00000000    0000b3e0   0000b3e0    r-x
  00000000    00000000    0000003c   0000003c    r-- .resetVecs
  00000040    00000040    00008ee2   00008ee2    r-x .text
  00008f28    00008f28    000022ac   000022ac    r-- .const
  0000b1d8    0000b1d8    00000208   00000208    r-- .cinit
20000000    20000000    00003540   00000000    rw-
  20000000    20000000    00000360   00000000    rw- .vecs
  20000360    20000360    00002ac4   00000000    rw- .bss
  20002e24    20002e24    0000041a   00000000    rw- .data
  20003240    20003240    00000300   00000000    rw- .stack


SECTION ALLOCATION MAP

 output                                  attributes/
section   page    origin      length       input sections
--------  ----  ----------  ----------   ----------------
.text      0    00000040    00008ee2     
                  00000040    00000a5e     rtsv7M4_T_le_v4SPD16_eabi.lib : _printfi.c.obj (.text:__TI_printfi)
                  00000a9e    00000002                                   : _lock.c.obj (.text:_nop)
                  00000aa0    00000460                                   : strtod.c.obj (.text:strtod)
                  00000f00    00000430     sysbios.aem4f : BIOS.obj (.text:ti_sysbios_family_arm_m3_Hwi_excDumpRegs__I)
                  00001330    000003e4     FirstPlace.obj (.text:robotStateTask)
                  00001714    0000034c     ti.targets.arm.rtsarm.aem4f : System.oem4f (.text:xdc_runtime_System_doPrint__I)
                  00001a60    000002b8     FirstPlace.obj (.text:main)
                  00001d18    00000270     rtsv7M4_T_le_v4SPD16_eabi.lib : _printfi.c.obj (.text:_pconv_a)
                  00001f88    0000021c     sysbios.aem4f : BIOS.obj (.text:ti_sysbios_family_arm_lm4_Timer_Instance_init__E)
                  000021a4    0000020c     drivers_tivaware.aem4f : UARTTiva.oem4f (.text:UARTTiva_open)
                  000023b0    000001fc     sysbios.aem4f : BIOS.obj (.text:ti_sysbios_family_arm_m3_Hwi_excHandlerMax__I)
                  000025ac    000001d0     rtsv7M4_T_le_v4SPD16_eabi.lib : _printfi.c.obj (.text:_pconv_g)
                  0000277c    000001b6                                   : fd_add_t2.asm.obj (.text)
                  00002932    00000006     driverlib.lib : gpio.obj (.text:GPIOIntClear)
                  00002938    00000174     sysbios.aem4f : BIOS.obj (.text:ti_sysbios_family_arm_m3_Hwi_excBusFault__I)
                  00002aac    00000170     drivers_tivaware.aem4f : PWMTiva.oem4f (.text:PWMTiva_open)
                  00002c1c    00000004     driverlib.lib : uart.obj (.text:UARTIntClear)
                  00002c20    00000164     sysbios.aem4f : BIOS.obj (.text:ti_sysbios_family_arm_m3_Hwi_excUsageFault__I)
                  00002d84    00000004     rtsv7M4_T_le_v4SPD16_eabi.lib : exit.c.obj (.text:abort:abort)
                  00002d88    00000154     sysbios.aem4f : BIOS.obj (.text:ti_sysbios_knl_Semaphore_pend__E)
                  00002edc    00000150     drivers_tivaware.aem4f : GPIOTiva.oem4f (.text:GPIO_setConfig)
                  0000302c    00000004     FirstPlace_pem4f.oem4f (.text:ti_sysbios_BIOS_RtsGateProxy_enter__E)
                  00003030    00000148     sysbios.aem4f : BIOS.obj (.text:ti_sysbios_family_arm_m3_Hwi_excMemFault__I)
                  00003178    0000013c     rtsv7M4_T_le_v4SPD16_eabi.lib : _printfi.c.obj (.text:_pconv_e)
                  000032b4    00000138     FirstPlace.obj (.text:PIDTask)
                  000033ec    00000136     rtsv7M4_T_le_v4SPD16_eabi.lib : fd_div_t2.asm.obj (.text)
                  00003522    00000130     driverlib.lib : gpio.obj (.text:GPIOPadConfigSet)
                  00003652    00000002     rtsv7M4_T_le_v4SPD16_eabi.lib : div0.asm.obj (.text)
                  00003654    00000120                                   : _printfi.c.obj (.text:fcvt)
                  00003774    00000118     ti.targets.arm.rtsarm.aem4f : Error.oem4f (.text:xdc_runtime_Error_policyDefault__E)
                  0000388c    00000110     rtsv7M4_T_le_v4SPD16_eabi.lib : s_scalbn.c.obj (.text:scalbn)
                  0000399c    00000004     FirstPlace_pem4f.oem4f (.text:ti_sysbios_BIOS_RtsGateProxy_leave__E)
                  000039a0    00000108     sysbios.aem4f : BIOS.obj (.text:ti_sysbios_family_arm_lm4_Timer_start__E)
                  00003aa8    00000100     Boot.aem4f : Boot_sysctl.oem4f (.text:ti_catalog_arm_cortexm4_tiva_ce_Boot_sysCtlClockSetI__I)
                  00003ba8    00000100     ti.targets.arm.rtsarm.aem4f : Core-mem.oem4f (.text:xdc_runtime_Core_createObject__I)
                  00003ca8    000000fc     rtsv7M4_T_le_v4SPD16_eabi.lib : fd_mul_t2.asm.obj (.text)
                  00003da4    000000f8     ti.targets.arm.rtsarm.aem4f : Startup.oem4f (.text:xdc_runtime_Startup_startMods__I)
                  00003e9c    000000f8     FirstPlace_pem4f.oem4f (.text:xdc_runtime_System_printfExtend__I)
                  00003f94    000000f4     sysbios.aem4f : m3_Hwi_asm.obj (.text:ti_sysbios_family_arm_m3_Hwi_dispatch__I)
                  00004088    000000f0     drivers_tivaware.aem4f : PWMTiva.oem4f (.text:PWMTiva_setDuty)
                  00004178    000000e8     FirstPlace.obj (.text:reflectanceTask)
                  00004260    000000e4     FirstPlace.obj (.text:sendTask)
                  00004344    00000004     sysbios.aem4f : BIOS.obj (.text:ti_sysbios_family_arm_lm4_Timer_masterEnable__I)
                  00004348    000000dc                   : BIOS.obj (.text:ti_sysbios_knl_Task_sleep__E)
                  00004424    00000004     FirstPlace_pem4f.oem4f (.text:ti_sysbios_family_arm_m3_Hwi_delete)
                  00004428    000000d4     sysbios.aem4f : BIOS.obj (.text:ti_sysbios_heaps_HeapMem_alloc__E)
                  000044fc    00000004     FirstPlace_pem4f.oem4f (.text:ti_sysbios_family_arm_m3_Hwi_destruct)
                  00004500    000000cc     sysbios.aem4f : BIOS.obj (.text:ti_sysbios_knl_Task_Instance_init__E)
                  000045cc    000000cc     ti.targets.arm.rtsarm.aem4f : Core-smem.oem4f (.text:xdc_runtime_Core_constructObject__I)
                  00004698    000000c0     FirstPlace.obj (.text:reflectanceHWI)
                  00004758    000000bc     sysbios.aem4f : BIOS.obj (.text:ti_sysbios_family_arm_m3_Hwi_excDebugMon__I)
                  00004814    00000004     FirstPlace_pem4f.oem4f (.text:ti_sysbios_family_arm_m3_TaskSupport_Module__startupDone__S)
                  00004818    000000bc     sysbios.aem4f : BIOS.obj (.text:ti_sysbios_family_arm_m3_Hwi_excHardFault__I)
                  000048d4    00000004     FirstPlace_pem4f.oem4f (.text:ti_sysbios_hal_Timer_TimerProxy_delete)
                  000048d8    000000bc     sysbios.aem4f : BIOS.obj (.text:ti_sysbios_knl_Task_Instance_finalize__E)
                  00004994    000000b1     rtsv7M4_T_le_v4SPD16_eabi.lib : _printfi.c.obj (.text:_ltostr)
                  00004a45    00000001     --HOLE-- [fill = 0]
                  00004a46    000000ac     drivers_tivaware.aem4f : UARTTiva.oem4f (.text:readTaskBlocking)
                  00004af2    00000006     driverlib.lib : gpio.obj (.text:GPIOPinRead)
                  00004af8    000000ac     sysbios.aem4f : BIOS.obj (.text:ti_sysbios_family_arm_lm4_Timer_enableTiva__I)
                  00004ba4    000000a4     FirstPlace.obj (.text:distanceTask)
                  00004c48    000000a4     FirstPlace.obj (.text:pwmMotorTask)
                  00004cec    000000a0     auto_init.aem4f : auto_init.oem4f (.text)
                  00004d8c    000000a0     ti.targets.arm.rtsarm.aem4f : Text.oem4f (.text:xdc_runtime_Text_putMod__E)
                  00004e2c    0000009c     rtsv7M4_T_le_v4SPD16_eabi.lib : memcpy_t2.asm.obj (.text)
                  00004ec8    0000009a     ti.targets.arm.rtsarm.aem4f : Text.oem4f (.text:xdc_runtime_Text_putSite__E)
                  00004f62    00000098     drivers_tivaware.aem4f : UARTTiva.oem4f (.text:UARTTiva_readPolling)
                  00004ffa    00000002     FirstPlace_pem4f.oem4f (.text:ti_sysbios_BIOS_nullFunc__I)
                  00004ffc    00000098     Boot.aem4f : Boot.oem4f (.text:ti_catalog_arm_cortexm4_tiva_ce_Boot_sysCtlClockSet__E)
                  00005094    00000096     rtsv7M4_T_le_v4SPD16_eabi.lib : ull_div_t2.asm.obj (.text)
                  0000512a    00000094     drivers_tivaware.aem4f : UARTTiva.oem4f (.text:UARTTiva_write)
                  000051be    00000002     FirstPlace_pem4f.oem4f (.text:xdc_runtime_Startup_reset__I)
                  000051c0    00000094     sysbios.aem4f : BIOS.obj (.text:ti_sysbios_family_arm_m3_Hwi_Instance_init__E)
                  00005254    00000004     FirstPlace_pem4f.oem4f (.text:ti_sysbios_hal_Timer_TimerProxy_getCount__E)
                  00005258    00000094     sysbios.aem4f : BIOS.obj (.text:ti_sysbios_family_arm_m3_Hwi_initNVIC__E)
                  000052ec    00000004     FirstPlace_pem4f.oem4f (.text:ti_sysbios_hal_Timer_TimerProxy_start__E)
                  000052f0    00000094     sysbios.aem4f : BIOS.obj (.text:ti_sysbios_knl_Task_postInit__I)
                  00005384    0000008c     drivers_tivaware.aem4f : GPIOTiva.oem4f (.text:GPIO_init)
                  00005410    0000008c                            : UARTTiva.oem4f (.text:UARTTiva_control)
                  0000549c    0000008c     sysbios.aem4f : m3_TaskSupport_asm.obj (.text:ti_sysbios_family_arm_m3_TaskSupport_buildTaskStack)
                  00005528    0000008a     drivers_tivaware.aem4f : UARTTiva.oem4f (.text:readIsrTextBlocking)
                  000055b2    00000002     --HOLE-- [fill = 0]
                  000055b4    00000088                            : PWMTiva.oem4f (.text:PWMTiva_control)
                  0000563c    00000086     rtsv7M4_T_le_v4SPD16_eabi.lib : fd_cmp_t2.asm.obj (.text:__aeabi_cdcmple)
                  000056c2    00000086                                   : fd_cmp_t2.asm.obj (.text:__aeabi_cdrcmple)
                  00005748    00000084     sysbios.aem4f : BIOS.obj (.text:ti_sysbios_family_arm_m3_Hwi_postInit__I)
                  000057cc    00000082     drivers_tivaware.aem4f : UARTTiva.oem4f (.text:readIsrTextCallback)
                  0000584e    00000002     --HOLE-- [fill = 0]
                  00005850    00000080     sysbios.aem4f : BIOS.obj (.text:ti_sysbios_family_arm_lm4_Timer_disableTiva__I)
                  000058d0    0000007c                   : BIOS.obj (.text:ti_sysbios_heaps_HeapMem_free__E)
                  0000594c    0000007a     driverlib.lib : adc.obj (.text:ADCSequenceStepConfigure)
                  000059c6    0000007a     drivers_tivaware.aem4f : UARTTiva.oem4f (.text:readTaskCallback)
                  00005a40    0000007a     rtsv7M4_T_le_v4SPD16_eabi.lib : memset_t2.asm.obj (.text)
                  00005aba    00000006     driverlib.lib : gpio.obj (.text:GPIOPinWrite)
                  00005ac0    00000070     sysbios.aem4f : BIOS.obj (.text:ti_sysbios_knl_Clock_workFunc__E)
                  00005b30    00000070                   : BIOS.obj (.text:ti_sysbios_knl_Task_exit__E)
                  00005ba0    0000006e     rtsv7M4_T_le_v4SPD16_eabi.lib : _printfi.c.obj (.text:_mcpy)
                  00005c0e    0000006e                                   : fd_tos_t2.asm.obj (.text)
                  00005c7c    0000006d     ti.targets.arm.rtsarm.aem4f : System.oem4f (.text:xdc_runtime_System_formatNum__I)
                  00005ce9    00000003     --HOLE-- [fill = 0]
                  00005cec    0000006c     FirstPlace_pem4f.oem4f (.text:ti_sysbios_family_arm_lm4_Timer_Object__create__S)
                  00005d58    0000006c     sysbios.aem4f : BIOS.obj (.text:ti_sysbios_knl_Swi_restoreHwi__E)
                  00005dc4    0000006c     drivers_tivaware.aem4f : UARTTiva.oem4f (.text:writeData)
                  00005e30    0000006c     ti.targets.arm.rtsarm.aem4f : Error.oem4f (.text:xdc_runtime_Error_print__E)
                  00005e9c    0000006c                                 : Memory.oem4f (.text:xdc_runtime_Memory_alloc__E)
                  00005f08    0000006a     drivers_tivaware.aem4f : PWMTiva.oem4f (.text:PWMTiva_close)
                  00005f72    00000002     --HOLE-- [fill = 0]
                  00005f74    00000068     robot.obj (.text:ROBOT_initADC)
                  00005fdc    00000068     rtsv7M4_T_le_v4SPD16_eabi.lib : copy_decompress_lzss.c.obj (.text:decompress:lzss:__TI_decompress_lzss)
                  00006044    00000068     FirstPlace.obj (.text:error2Buf)
                  000060ac    00000066     ti.targets.arm.rtsarm.aem4f : Core-mem.oem4f (.text:xdc_runtime_Core_deleteObject__I)
                  00006112    00000002     --HOLE-- [fill = 0]
                  00006114    00000064     drivers_tivaware.aem4f : GPIOTiva.oem4f (.text:GPIO_hwiIntFxn)
                  00006178    00000064     rtsv7M4_T_le_v4SPD16_eabi.lib : s_frexp.c.obj (.text:frexp)
                  000061dc    00000004     FirstPlace_pem4f.oem4f (.text:ti_sysbios_hal_Timer_TimerProxy_stop__E)
                  000061e0    00000064     sysbios.aem4f : BIOS.obj (.text:ti_sysbios_family_arm_lm4_Timer_Module_startup__E)
                  00006244    00000064     FirstPlace_pem4f.oem4f (.text:ti_sysbios_family_arm_m3_Hwi_create)
                  000062a8    00000064     sysbios.aem4f : BIOS.obj (.text:ti_sysbios_family_arm_m3_Hwi_dispatchC__I)
                  0000630c    00000064     FirstPlace_pem4f.oem4f (.text:ti_sysbios_hal_Timer_create)
                  00006370    00000064     sysbios.aem4f : BIOS.obj (.text:ti_sysbios_knl_Semaphore_post__E)
                  000063d4    0000005e     drivers_tivaware.aem4f : UARTTiva.oem4f (.text:readIsrBinaryBlocking)
                  00006432    00000006     driverlib.lib : uart.obj (.text:UARTFIFOLevelSet)
                  00006438    0000005c     sysbios.aem4f : BIOS.obj (.text:ti_sysbios_knl_Clock_Instance_init__E)
                  00006494    00000004     FirstPlace_pem4f.oem4f (.text:ti_sysbios_heaps_HeapMem_Module_GateProxy_enter__E)
                  00006498    0000005c     sysbios.aem4f : BIOS.obj (.text:ti_sysbios_knl_Swi_run__I)
                  000064f4    00000004     FirstPlace_pem4f.oem4f (.text:ti_sysbios_heaps_HeapMem_Module_GateProxy_leave__E)
                  000064f8    0000005c     sysbios.aem4f : BIOS.obj (.text:ti_sysbios_knl_Swi_schedule__I)
                  00006554    00000004     FirstPlace_pem4f.oem4f (.text:ti_sysbios_knl_Clock_TimerProxy_getMaxTicks__E)
                  00006558    0000005c     sysbios.aem4f : BIOS.obj (.text:ti_sysbios_knl_Task_Module_startup__E)
                  000065b4    00000004     FirstPlace_pem4f.oem4f (.text:ti_sysbios_knl_Clock_destruct)
                  000065b8    0000005c     sysbios.aem4f : BIOS.obj (.text:ti_sysbios_knl_Task_startCore__E)
                  00006614    0000005b     ti.targets.arm.rtsarm.aem4f : Text.oem4f (.text:xdc_runtime_Text_putLab__E)
                  0000666f    00000001     --HOLE-- [fill = 0]
                  00006670    00000058     boot.aem4f : boot.oem4f (.text)
                  000066c8    00000058     rtsv7M4_T_le_v4SPD16_eabi.lib : hostwrite.c.obj (.text:HOSTwrite)
                  00006720    00000058     sysbios.aem4f : BIOS.obj (.text:ti_sysbios_family_arm_lm4_Timer_Instance_finalize__E)
                  00006778    00000058     FirstPlace_pem4f.oem4f (.text:ti_sysbios_family_arm_m3_Hwi_construct)
                  000067d0    00000058     sysbios.aem4f : m3_Hwi_asm_switch.obj (.text:ti_sysbios_family_arm_m3_Hwi_initStacks__E)
                  00006828    00000056     driverlib.lib : gpio.obj (.text:GPIOIntTypeSet)
                  0000687e    00000056     rtsv7M4_T_le_v4SPD16_eabi.lib : _printfi.c.obj (.text:_pconv_f)
                  000068d4    00000054     robot.obj (.text:ROBOT_initUART)
                  00006928    00000054     rtsv7M4_T_le_v4SPD16_eabi.lib : ltoa.c.obj (.text:ltoa)
                  0000697c    00000054     drivers_tivaware.aem4f : UARTTiva.oem4f (.text:readIsrBinaryCallback)
                  000069d0    00000054     sysbios.aem4f : BIOS.obj (.text:ti_sysbios_family_arm_lm4_Timer_initDevice__I)
                  00006a24    00000054     FirstPlace_pem4f.oem4f (.text:ti_sysbios_knl_Task_construct)
                  00006a78    00000054     ti.targets.arm.rtsarm.aem4f : Assert.oem4f (.text:xdc_runtime_Assert_raise__I)
                  00006acc    00000052     rtsv7M4_T_le_v4SPD16_eabi.lib : _printfi.c.obj (.text:_ecpy)
                  00006b1e    00000002     --HOLE-- [fill = 0]
                  00006b20    00000050     drivers_tivaware.aem4f : GPIOTiva.oem4f (.text:GPIO_setCallback)
                  00006b70    00000050                            : GPIOTiva.oem4f (.text:GPIO_toggle)
                  00006bc0    00000050                            : GPIOTiva.oem4f (.text:GPIO_write)
                  00006c10    00000050                            : UARTTiva.oem4f (.text:UARTTiva_writeCancel)
                  00006c60    00000050     sysbios.aem4f : BIOS.obj (.text:ti_sysbios_family_arm_m3_Hwi_Module_startup__E)
                  00006cb0    00000050     ti.targets.arm.rtsarm.aem4f : Startup.oem4f (.text:xdc_runtime_Startup_exec__E)
                  00006d00    00000050                                 : Text.oem4f (.text:xdc_runtime_Text_visitRope2__I)
                  00006d50    0000004c     drivers_tivaware.aem4f : UARTTiva.oem4f (.text:UARTTiva_close)
                  00006d9c    0000004c     rtsv7M4_T_le_v4SPD16_eabi.lib : atoi.c.obj (.text:atoi)
                  00006de8    0000004c                                   : cpy_tbl.c.obj (.text:copy_in)
                  00006e34    00000004     FirstPlace_pem4f.oem4f (.text:ti_sysbios_knl_Queue_destruct)
                  00006e38    0000004c     sysbios.aem4f : BIOS.obj (.text:ti_sysbios_heaps_HeapMem_getStats__E)
                  00006e84    00000004     FirstPlace_pem4f.oem4f (.text:ti_sysbios_knl_Semaphore_destruct)
                  00006e88    0000004c     sysbios.aem4f : BIOS.obj (.text:ti_sysbios_knl_Swi_runLoop__I)
                  00006ed4    00000004     ti.targets.arm.rtsarm.aem4f : Error.oem4f (.text:xdc_runtime_Error_getSite__E)
                  00006ed8    0000004c     sysbios.aem4f : BIOS.obj (.text:ti_sysbios_knl_Task_allBlockedFunction__I)
                  00006f24    00000004     FirstPlace_pem4f.oem4f (.text:xdc_runtime_System_Module_GateProxy_enter__E)
                  00006f28    0000004c     sysbios.aem4f : BIOS.obj (.text:ti_sysbios_knl_Task_schedule__I)
                  00006f74    00000048     driverlib.lib : gpio.obj (.text:GPIOPinConfigure)
                  00006fbc    00000048     rtsv7M4_T_le_v4SPD16_eabi.lib : fd_toi_t2.asm.obj (.text)
                  00007004    00000004     FirstPlace_pem4f.oem4f (.text:xdc_runtime_System_Module_GateProxy_leave__E)
                  00007008    00000048     sysbios.aem4f : BIOS.obj (.text:ti_sysbios_family_arm_lm4_Timer_enableTimers__I)
                  00007050    00000048                   : BIOS.obj (.text:ti_sysbios_family_arm_m3_Hwi_disableInterrupt__E)
                  00007098    00000048                   : BIOS.obj (.text:ti_sysbios_family_arm_m3_Hwi_enableInterrupt__E)
                  000070e0    00000048                   : BIOS.obj (.text:ti_sysbios_family_arm_m3_Hwi_excReserved__I)
                  00007128    00000046     drivers_tivaware.aem4f : RingBuf.oem4f (.text:RingBuf_put)
                  0000716e    00000046     ti.targets.arm.rtsarm.aem4f : Core-params.oem4f (.text:xdc_runtime_Core_assignParams__I)
                  000071b4    00000044     rtsv7M4_T_le_v4SPD16_eabi.lib : fd_tou_t2.asm.obj (.text)
                  000071f8    00000044     sysbios.aem4f : BIOS.obj (.text:ti_sysbios_family_arm_lm4_Timer_isrStub__E)
                  0000723c    00000004     ti.targets.arm.rtsarm.aem4f : System.oem4f (.text:xdc_runtime_System_aprintf_va__F)
                  00007240    00000044     sysbios.aem4f : BIOS.obj (.text:ti_sysbios_family_arm_m3_Hwi_getStackInfo__E)
                  00007284    00000004     ti.targets.arm.rtsarm.aem4f : System.oem4f (.text:xdc_runtime_System_printf_va__F)
                  00007288    00000044     sysbios.aem4f : BIOS.obj (.text:ti_sysbios_knl_Swi_post__E)
                  000072cc    00000044     ti.targets.arm.rtsarm.aem4f : Error.oem4f (.text:xdc_runtime_Error_setX__E)
                  00007310    00000044                                 : SysMin.oem4f (.text:xdc_runtime_SysMin_flush__E)
                  00007354    00000044                                 : Text.oem4f (.text:xdc_runtime_Text_xprintf__I)
                  00007398    00000042     driverlib.lib : uart.obj (.text:UARTConfigSetExpClk)
                  000073da    00000042     drivers_tivaware.aem4f : UARTTiva.oem4f (.text:UARTTiva_hwiIntFxn)
                  0000741c    00000042                            : UARTTiva.oem4f (.text:UARTTiva_writePolling)
                  0000745e    00000002     --HOLE-- [fill = 0]
                  00007460    00000040     robot.obj (.text:ROBOT_initGeneral)
                  000074a0    00000040     drivers_tivaware.aem4f : RingBuf.oem4f (.text:RingBuf_get)
                  000074e0    00000040                            : UARTTiva.oem4f (.text:UARTTiva_read)
                  00007520    00000040     rtsv7M4_T_le_v4SPD16_eabi.lib : u_divt2.asm.obj (.text)
                  00007560    00000040                                   : sprintf.c.obj (.text:sprintf)
                  000075a0    00000040     sysbios.aem4f : BIOS.obj (.text:ti_sysbios_family_arm_lm4_Timer_startup__E)
                  000075e0    00000040                   : BIOS.obj (.text:ti_sysbios_heaps_HeapMem_Instance_init__E)
                  00007620    0000003e     driverlib.lib : adc.obj (.text:ADCSequenceConfigure)
                  0000765e    0000003e     rtsv7M4_T_le_v4SPD16_eabi.lib : _printfi.c.obj (.text:_fcpy)
                  0000769c    0000003c     FirstPlace.obj (.text:blinkyTask)
                  000076d8    0000003c     sysbios.aem4f : BIOS.obj (.text:ti_sysbios_family_arm_m3_Hwi_excSvCall__I)
                  00007714    00000004     --HOLE-- [fill = 0]
                  00007718    0000003c                   : BIOS.obj (.text:ti_sysbios_heaps_HeapMem_init__I)
                  00007754    00000004     --HOLE-- [fill = 0]
                  00007758    0000003c                   : BIOS.obj (.text:ti_sysbios_knl_Swi_restore__E)
                  00007794    00000038     drivers_tivaware.aem4f : PWM.oem4f (.text:PWM_init)
                  000077cc    00000038                            : UART.oem4f (.text:UART_init)
                  00007804    00000038     rtsv7M4_T_le_v4SPD16_eabi.lib : trgmsg.c.obj (.text:__TI_writemsg)
                  0000783c    00000038                                   : fs_tod_t2.asm.obj (.text)
                  00007874    00000004     --HOLE-- [fill = 0]
                  00007878    00000038     sysbios.aem4f : BIOS.obj (.text:ti_sysbios_family_arm_m3_Hwi_excNoIsr__I)
                  000078b0    00000038                   : BIOS.obj (.text:ti_sysbios_knl_Task_processVitalTaskFlag__I)
                  000078e8    00000038     ti.targets.arm.rtsarm.aem4f : SysMin.oem4f (.text:xdc_runtime_SysMin_putch__E)
                  00007920    00000038                                 : System.oem4f (.text:xdc_runtime_System_atexit__E)
                  00007958    00000036     drivers_tivaware.aem4f : UARTTiva.oem4f (.text:UARTTiva_readCancel)
                  0000798e    00000002     --HOLE-- [fill = 0]
                  00007990    00000034     robot.obj (.text:ROBOT_ADC_sample)
                  000079c4    00000034     driverlib.lib : sysctl.obj (.text:SysCtlPeripheralEnable)
                  000079f8    00000034     rtsv7M4_T_le_v4SPD16_eabi.lib : trgmsg.c.obj (.text:__TI_readmsg)
                  00007a2c    00000004     --HOLE-- [fill = 0]
                  00007a30    00000034     sysbios.aem4f : BIOS.obj (.text:ti_sysbios_family_arm_lm4_Timer_setPeriodMicroSecs__E)
                  00007a64    00000004     --HOLE-- [fill = 0]
                  00007a68    00000034                   : BIOS.obj (.text:ti_sysbios_family_arm_m3_Hwi_Instance_finalize__E)
                  00007a9c    00000004     --HOLE-- [fill = 0]
                  00007aa0    00000034                   : BIOS.obj (.text:ti_sysbios_family_arm_m3_Hwi_excNmi__I)
                  00007ad4    00000034     FirstPlace_pem4f.oem4f (.text:ti_sysbios_knl_Clock_construct)
                  00007b08    00000034     FirstPlace_pem4f.oem4f (.text:ti_sysbios_knl_Semaphore_create)
                  00007b3c    00000034     ti.targets.arm.rtsarm.aem4f : Core-label.oem4f (.text:xdc_runtime_Core_assignLabel__I)
                  00007b70    00000033                                 : Text.oem4f (.text:xdc_runtime_Text_printVisFxn__I)
                  00007ba3    00000005     --HOLE-- [fill = 0]
                  00007ba8    00000032     sysbios.aem4f : BIOS.obj (.text:ti_sysbios_hal_Hwi_initStack)
                  00007bda    00000002     --HOLE-- [fill = 0]
                  00007bdc    00000030     drivers_tivaware.aem4f : GPIOTiva.oem4f (.text:GPIO_disableInt)
                  00007c0c    00000030                            : GPIOTiva.oem4f (.text:GPIO_enableInt)
                  00007c3c    00000030                            : PWMTiva.oem4f (.text:PWMTiva_init)
                  00007c6c    00000030                            : PWM.oem4f (.text:PWM_open)
                  00007c9c    00000030                            : UART.oem4f (.text:UART_open)
                  00007ccc    00000030     FirstPlace_pem4f.oem4f (.text:ti_sysbios_BIOS_atExitFunc__I)
                  00007cfc    00000004     --HOLE-- [fill = 0]
                  00007d00    00000030     sysbios.aem4f : BIOS.obj (.text:ti_sysbios_family_arm_lm4_Timer_stop__E)
                  00007d30    00000030                   : BIOS.obj (.text:ti_sysbios_family_arm_m3_TaskSupport_start__E)
                  00007d60    00000030     FirstPlace_pem4f.oem4f (.text:ti_sysbios_gates_GateHwi_Object__create__S)
                  00007d90    00000030     FirstPlace_pem4f.oem4f (.text:ti_sysbios_gates_GateMutex_Object__create__S)
                  00007dc0    00000030     sysbios.aem4f : BIOS.obj (.text:ti_sysbios_gates_GateMutex_enter__E)
                  00007df0    00000030     FirstPlace_pem4f.oem4f (.text:ti_sysbios_heaps_HeapMem_Object__create__S)
                  00007e20    00000030     FirstPlace_pem4f.oem4f (.text:ti_sysbios_knl_Semaphore_construct)
                  00007e50    00000030     sysbios.aem4f : BIOS.obj (.text:ti_sysbios_knl_Semaphore_pendTimeout__I)
                  00007e80    00000030                   : BIOS.obj (.text:ti_sysbios_knl_Task_unblockI__E)
                  00007eb0    00000030     ti.targets.arm.rtsarm.aem4f : SysMin.oem4f (.text:xdc_runtime_SysMin_abort__E)
                  00007ee0    00000030                                 : System.oem4f (.text:xdc_runtime_System_processAtExit__E)
                  00007f10    0000002e     driverlib.lib : adc.obj (.text:ADCIntStatus)
                  00007f3e    0000002e     rtsv7M4_T_le_v4SPD16_eabi.lib : i_tofd_t2.asm.obj (.text)
                  00007f6c    0000002c     robot.obj (.text:ROBOT_initPWM)
                  00007f98    0000002c     FirstPlace_pem4f.oem4f (.text:ti_sysbios_knl_Clock_doTick__I)
                  00007fc4    0000002c     FirstPlace_pem4f.oem4f (.text:ti_sysbios_knl_Queue_construct)
                  00007ff0    0000002c     sysbios.aem4f : BIOS.obj (.text:ti_sysbios_knl_Task_restore__E)
                  0000801c    0000002c     ti.targets.arm.rtsarm.aem4f : Text.oem4f (.text:xdc_runtime_Text_cordText__E)
                  00008048    0000002a     driverlib.lib : gpio.obj (.text:GPIODirModeSet)
                  00008072    0000002a     ti.targets.arm.rtsarm.aem4f : System.oem4f (.text:xdc_runtime_System_putchar__I)
                  0000809c    00000004     --HOLE-- [fill = 0]
                  000080a0    00000028     sysbios.aem4f : BIOS.obj (.text:ti_sysbios_hal_Timer_Instance_init__E)
                  000080c8    00000028                   : BIOS.obj (.text:ti_sysbios_knl_Swi_Module_startup__E)
                  000080f0    00000026                   : m3_Hwi_asm.obj (.text:ti_sysbios_family_arm_m3_Hwi_pendSV__I)
                  00008116    00000026     ti.targets.arm.rtsarm.aem4f : System.oem4f (.text:xdc_runtime_System_avprintf__E)
                  0000813c    00000024     FirstPlace_pem4f.oem4f (.text:ti_sysbios_BIOS_errorRaiseHook__I)
                  00008160    00000024     FirstPlace_pem4f.oem4f (.text:ti_sysbios_BIOS_registerRTSLock__I)
                  00008184    00000024     FirstPlace_pem4f.oem4f (.text:ti_sysbios_BIOS_removeRTSLock__I)
                  000081a8    00000024     FirstPlace_pem4f.oem4f (.text:ti_sysbios_BIOS_startFunc__I)
                  000081cc    00000024     FirstPlace_pem4f.oem4f (.text:ti_sysbios_gates_GateMutex_Object__delete__S)
                  000081f0    00000024     sysbios.aem4f : BIOS.obj (.text:ti_sysbios_knl_Clock_Module_startup__E)
                  00008214    00000004     --HOLE-- [fill = 0]
                  00008218    00000024                   : BIOS.obj (.text:ti_sysbios_knl_Clock_start__E)
                  0000823c    00000004     --HOLE-- [fill = 0]
                  00008240    00000024                   : BIOS.obj (.text:ti_sysbios_knl_Semaphore_Instance_init__E)
                  00008264    00000004     --HOLE-- [fill = 0]
                  00008268    00000024                   : BIOS.obj (.text:ti_sysbios_knl_Task_restoreHwi__E)
                  0000828c    00000024     ti.targets.arm.rtsarm.aem4f : System.oem4f (.text:xdc_runtime_System_vprintf__E)
                  000082b0    00000022     driverlib.lib : pwm.obj (.text:PWMGenConfigure)
                  000082d2    00000022     drivers_tivaware.aem4f : PWMTiva.oem4f (.text:PWMTiva_getPeriodCounts)
                  000082f4    00000004     --HOLE-- [fill = 0]
                  000082f8    00000022     sysbios.aem4f : BIOS.obj (.text:ti_sysbios_family_arm_lm4_Timer_write__I)
                  0000831a    00000022     FirstPlace_pem4f.oem4f (.text:xdc_runtime_SysMin_output__I)
                  0000833c    00000020     rtsv7M4_T_le_v4SPD16_eabi.lib : u_tofd_t2.asm.obj (.text)
                  0000835c    00000020     FirstPlace_pem4f.oem4f (.text:ti_sysbios_BIOS_rtsLock__I)
                  0000837c    00000020     FirstPlace_pem4f.oem4f (.text:ti_sysbios_family_arm_lm4_Timer_Object__delete__S)
                  0000839c    00000020     FirstPlace_pem4f.oem4f (.text:ti_sysbios_family_arm_m3_Hwi_Object__delete__S)
                  000083bc    00000020     sysbios.aem4f : m3_Hwi_asm.obj (.text:ti_sysbios_family_arm_m3_Hwi_excHandlerAsm__I)
                  000083dc    00000004     --HOLE-- [fill = 0]
                  000083e0    00000020                   : BIOS.obj (.text:ti_sysbios_family_arm_m3_Hwi_excHandler__I)
                  00008400    00000020     FirstPlace_pem4f.oem4f (.text:ti_sysbios_gates_GateHwi_Object__delete__S)
                  00008420    00000020     FirstPlace_pem4f.oem4f (.text:ti_sysbios_heaps_HeapMem_Object__delete__S)
                  00008440    00000020     FirstPlace_pem4f.oem4f (.text:ti_sysbios_knl_Clock_Object__destruct__S)
                  00008460    00000020     sysbios.aem4f : BIOS.obj (.text:ti_sysbios_knl_Idle_run__E)
                  00008480    00000020     FirstPlace_pem4f.oem4f (.text:ti_sysbios_knl_Semaphore_Object__destruct__S)
                  000084a0    00000020     ti.targets.arm.rtsarm.aem4f : Registry.oem4f (.text:xdc_runtime_Registry_findById__E)
                  000084c0    00000020                                 : SysMin.oem4f (.text:xdc_runtime_SysMin_Module_startup__E)
                  000084e0    0000001e     driverlib.lib : adc.obj (.text:ADCSequenceDataGet)
                  000084fe    0000001e                   : pwm.obj (.text:PWMPulseWidthSet)
                  0000851c    0000001e     drivers_tivaware.aem4f : PWMTiva.oem4f (.text:PWMTiva_getPeriodMicroSecs)
                  0000853a    0000001e     sysbios.aem4f : m3_Hwi_asm_switch.obj (.text:ti_sysbios_family_xxx_Hwi_switchAndRunFunc)
                  00008558    0000001c     driverlib.lib : uart.obj (.text:UARTDisable)
                  00008574    0000001c     drivers_tivaware.aem4f : GPIOTiva.oem4f (.text:getGpioIntIndex)
                  00008590    0000001c     rtsv7M4_T_le_v4SPD16_eabi.lib : memccpy.c.obj (.text:memccpy)
                  000085ac    0000001c     FirstPlace_pem4f.oem4f (.text:ti_sysbios_family_arm_m3_Hwi_Object__destruct__S)
                  000085c8    0000001c     sysbios.aem4f : BIOS.obj (.text:ti_sysbios_gates_GateMutex_Instance_init__E)
                  000085e4    0000001c     FirstPlace_pem4f.oem4f (.text:ti_sysbios_hal_Timer_TimerProxy_create)
                  00008600    0000001c     sysbios.aem4f : BIOS.obj (.text:ti_sysbios_knl_Clock_Instance_finalize__E)
                  0000861c    0000001c     FirstPlace_pem4f.oem4f (.text:ti_sysbios_knl_Queue_Object__destruct__S)
                  00008638    0000001c     sysbios.aem4f : BIOS.obj (.text:ti_sysbios_knl_Queue_put__E)
                  00008654    00000004     --HOLE-- [fill = 0]
                  00008658    0000001c                   : BIOS.obj (.text:ti_sysbios_knl_Task_enter__I)
                  00008674    0000001c     ti.targets.arm.rtsarm.aem4f : Error.oem4f (.text:xdc_runtime_Error_raiseX__E)
                  00008690    0000001c                                 : Memory.oem4f (.text:xdc_runtime_Memory_valloc__E)
                  000086ac    0000001c                                 : SysMin.oem4f (.text:xdc_runtime_SysMin_exit__E)
                  000086c8    0000001c                                 : System.oem4f (.text:xdc_runtime_System_abort__E)
                  000086e4    0000001a     FirstPlace_pem4f.oem4f (.text:ti_sysbios_family_arm_m3_Hwi_Handle__label__S)
                  000086fe    0000001a     FirstPlace_pem4f.oem4f (.text:ti_sysbios_gates_GateHwi_Handle__label__S)
                  00008718    0000001a     FirstPlace_pem4f.oem4f (.text:ti_sysbios_gates_GateMutex_Handle__label__S)
                  00008732    0000001a     FirstPlace_pem4f.oem4f (.text:ti_sysbios_heaps_HeapMem_Handle__label__S)
                  0000874c    0000001a     FirstPlace_pem4f.oem4f (.text:ti_sysbios_knl_Swi_Handle__label__S)
                  00008766    0000001a     FirstPlace_pem4f.oem4f (.text:ti_sysbios_knl_Task_Handle__label__S)
                  00008780    0000001a     FirstPlace_pem4f.oem4f (.text:xdc_runtime_System_aprintf__E)
                  0000879a    0000001a     FirstPlace_pem4f.oem4f (.text:xdc_runtime_System_printf__E)
                  000087b4    00000018     driverlib.lib : adc.obj (.text:ADCProcessorTrigger)
                  000087cc    00000018     drivers_tivaware.aem4f : UART.oem4f (.text:UART_Params_init)
                  000087e4    00000018     rtsv7M4_T_le_v4SPD16_eabi.lib : args_main.c.obj (.text:_args_main)
                  000087fc    00000018                                   : sprintf.c.obj (.text:_outs)
                  00008814    00000018     FirstPlace_pem4f.oem4f (.text:ti_sysbios_BIOS_rtsUnlock__I)
                  0000882c    00000018     FirstPlace_pem4f.oem4f (.text:ti_sysbios_family_arm_lm4_Timer_Module__startupDone__F)
                  00008844    00000018     FirstPlace_pem4f.oem4f (.text:ti_sysbios_family_arm_m3_Hwi_Module__startupDone__F)
                  0000885c    00000018     sysbios.aem4f : m3_TaskSupport_asm.obj (.text:ti_sysbios_family_arm_m3_TaskSupport_swap__E)
                  00008874    00000004     --HOLE-- [fill = 0]
                  00008878    00000018                   : BIOS.obj (.text:ti_sysbios_gates_GateMutex_leave__E)
                  00008890    00000018                   : BIOS.obj (.text:ti_sysbios_knl_Task_sleepTimeout__I)
                  000088a8    00000018     ti.targets.arm.rtsarm.aem4f : Error.oem4f (.text:xdc_runtime_Error_check__E)
                  000088c0    00000018                                 : System.oem4f (.text:xdc_runtime_System_exit__E)
                  000088d8    00000018                                 : Text.oem4f (.text:xdc_runtime_Text_ropeText__E)
                  000088f0    00000016     rtsv7M4_T_le_v4SPD16_eabi.lib : strchr.c.obj (.text:strchr)
                  00008906    00000016     FirstPlace_pem4f.oem4f (.text:ti_sysbios_BIOS_exitFunc__I)
                  0000891c    00000016     FirstPlace.obj (.text:ti_sysbios_hal_Timer_Params_init)
                  00008932    00000016     FirstPlace.obj (.text:ti_sysbios_knl_Semaphore_Params_init)
                  00008948    00000016     FirstPlace.obj (.text:ti_sysbios_knl_Task_Params_init)
                  0000895e    00000002     --HOLE-- [fill = 0]
                  00008960    00000014     driverlib.lib : pwm.obj (.text:PWMClockSet)
                  00008974    00000014                   : sysctl.obj (.text:SysCtlPWMClockSet)
                  00008988    00000014                   : uart.obj (.text:UARTEnable)
                  0000899c    00000014     rtsv7M4_T_le_v4SPD16_eabi.lib : s_copysign.c.obj (.text:copysign)
                  000089b0    00000014                                   : strlen.c.obj (.text:strlen)
                  000089c4    00000004     --HOLE-- [fill = 0]
                  000089c8    00000014     sysbios.aem4f : BIOS.obj (.text:ti_sysbios_family_arm_lm4_Timer_getCount__E)
                  000089dc    00000014     FirstPlace_pem4f.oem4f (.text:ti_sysbios_family_arm_m3_Hwi_Object__get__S)
                  000089f0    00000014     sysbios.aem4f : BIOS.obj (.text:ti_sysbios_family_arm_m3_Hwi_switchFromBootStack__E)
                  00008a04    00000014     FirstPlace_pem4f.oem4f (.text:ti_sysbios_heaps_HeapMem_Object__get__S)
                  00008a18    00000014     FirstPlace_pem4f.oem4f (.text:ti_sysbios_knl_Swi_Object__get__S)
                  00008a2c    00000012     driverlib.lib : gpio.obj (.text:GPIOPinTypeADC)
                  00008a3e    00000012                   : gpio.obj (.text:GPIOPinTypeGPIOInput)
                  00008a50    00000012                   : gpio.obj (.text:GPIOPinTypePWM)
                  00008a62    00000012                   : gpio.obj (.text:GPIOPinTypeUART)
                  00008a74    00000012                   : pwm.obj (.text:PWMGenPeriodGet)
                  00008a86    00000012                   : pwm.obj (.text:PWMOutputInvert)
                  00008a98    00000012                   : pwm.obj (.text:PWMOutputState)
                  00008aaa    00000012     drivers_tivaware.aem4f : RingBuf.oem4f (.text:RingBuf_construct)
                  00008abc    00000012     rtsv7M4_T_le_v4SPD16_eabi.lib : atof.c.obj (.text:atof)
                  00008ace    00000002     --HOLE-- [fill = 0]
                  00008ad0    00000012     sysbios.aem4f : BIOS.obj (.text:ti_sysbios_hal_Hwi_Module_startup__E)
                  00008ae2    00000006     driverlib.lib : uart.obj (.text:UARTRxErrorClear)
                  00008ae8    00000012     sysbios.aem4f : BIOS.obj (.text:ti_sysbios_hal_Timer_Module_startup__E)
                  00008afa    00000012     rtsv7M4_T_le_v4SPD16_eabi.lib : wcslen.c.obj (.text:wcslen)
                  00008b0c    00000012     FirstPlace_pem4f.oem4f (.text:xdc_runtime_Startup_exec__I)
                  00008b1e    00000010     driverlib.lib : pwm.obj (.text:PWMGenPeriodSet)
                  00008b2e    00000002     --HOLE-- [fill = 0]
                  00008b30    00000010     drivers_tivaware.aem4f : PWM.oem4f (.text:PWM_Params_init)
                  00008b40    00000010                            : UARTTiva.oem4f (.text:readBlockingTimeout)
                  00008b50    00000010     sysbios.aem4f : BIOS.obj (.text:ti_sysbios_BIOS_getCpuFreq__E)
                  00008b60    00000010                   : BIOS.obj (.text:ti_sysbios_BIOS_setThreadType__E)
                  00008b70    00000010                   : BIOS.obj (.text:ti_sysbios_BIOS_start__E)
                  00008b80    00000010                   : m3_TaskSupport_asm.obj (.text:ti_sysbios_family_arm_m3_TaskSupport_glue)
                  00008b90    00000010                   : BIOS.obj (.text:ti_sysbios_gates_GateMutex_Instance_finalize__E)
                  00008ba0    00000010     FirstPlace_pem4f.oem4f (.text:ti_sysbios_hal_Timer_TimerProxy_Object__create__S)
                  00008bb0    00000010     sysbios.aem4f : BIOS.obj (.text:ti_sysbios_knl_Semaphore_Instance_finalize__E)
                  00008bc0    00000010                   : BIOS.obj (.text:ti_sysbios_knl_Swi_disable__E)
                  00008bd0    00000010                   : BIOS.obj (.text:ti_sysbios_knl_Task_disable__E)
                  00008be0    00000010     ti.targets.arm.rtsarm.aem4f : Gate.oem4f (.text:xdc_runtime_Gate_leaveSystem__E)
                  00008bf0    00000010                                 : Memory.oem4f (.text:xdc_runtime_Memory_free__E)
                  00008c00    00000010                                 : SysMin.oem4f (.text:xdc_runtime_SysMin_ready__E)
                  00008c10    00000010                                 : System.oem4f (.text:xdc_runtime_System_vsnprintf__E)
                  00008c20    00000010     FirstPlace_pem4f.oem4f (.text:xdc_runtime_Text_visitRope__I)
                  00008c30    0000000e     driverlib.lib : adc.obj (.text:ADCSequenceEnable)
                  00008c3e    0000000e                   : gpio.obj (.text:GPIOIntDisable)
                  00008c4c    0000000e                   : gpio.obj (.text:GPIOIntStatus)
                  00008c5a    0000000e                   : uart.obj (.text:UARTCharGetNonBlocking)
                  00008c68    0000000e                   : uart.obj (.text:UARTCharPutNonBlocking)
                  00008c76    0000000e     rtsv7M4_T_le_v4SPD16_eabi.lib : copy_decompress_none.c.obj (.text:decompress:none:__TI_decompress_none)
                  00008c84    00000004     --HOLE-- [fill = 0]
                  00008c88    0000000e     sysbios.aem4f : BIOS.obj (.text:ti_sysbios_knl_Queue_empty__E)
                  00008c96    0000000e     FirstPlace_pem4f.oem4f (.text:ti_sysbios_knl_Task_Object__get__S)
                  00008ca4    0000000c     FirstPlace_pem4f.oem4f (.text:.bootCodeSection:ti_catalog_arm_cortexm4_tiva_ce_Boot_init__I)
                  00008cb0    0000000c     driverlib.lib : gpio.obj (.text:GPIOIntEnable)
                  00008cbc    0000000c                   : pwm.obj (.text:PWMGenDisable)
                  00008cc8    0000000c                   : pwm.obj (.text:PWMGenEnable)
                  00008cd4    0000000c     drivers_tivaware.aem4f : RingBuf.oem4f (.text:RingBuf_peek)
                  00008ce0    0000000c     driverlib.lib : uart.obj (.text:UARTFlowControlSet)
                  00008cec    0000000c     drivers_tivaware.aem4f : UARTTiva.oem4f (.text:UARTTiva_init)
                  00008cf8    0000000c     rtsv7M4_T_le_v4SPD16_eabi.lib : _lock.c.obj (.text:_register_lock)
                  00008d04    0000000c                                   : _lock.c.obj (.text:_register_unlock)
                  00008d10    0000000c                                   : copy_zero_init.c.obj (.text:decompress:ZI:__TI_zero_init)
                  00008d1c    00000004     --HOLE-- [fill = 0]
                  00008d20    0000000c     sysbios.aem4f : BIOS.obj (.text:ti_sysbios_family_arm_lm4_Timer_getMaxTicks__E)
                  00008d2c    0000000c     FirstPlace_pem4f.oem4f (.text:ti_sysbios_family_arm_m3_Hwi_Params__init__S)
                  00008d38    0000000c     sysbios.aem4f : BIOS.obj (.text:ti_sysbios_family_arm_m3_Hwi_disableFxn__E)
                  00008d44    00000004     --HOLE-- [fill = 0]
                  00008d48    0000000c                   : BIOS.obj (.text:ti_sysbios_family_arm_m3_TaskSupport_getStackAlignment__E)
                  00008d54    00000004     --HOLE-- [fill = 0]
                  00008d58    0000000c                   : BIOS.obj (.text:ti_sysbios_gates_GateHwi_enter__E)
                  00008d64    0000000c     FirstPlace_pem4f.oem4f (.text:ti_sysbios_hal_Timer_Params__init__S)
                  00008d70    0000000c     FirstPlace_pem4f.oem4f (.text:ti_sysbios_knl_Clock_Params__init__S)
                  00008d7c    00000004     --HOLE-- [fill = 0]
                  00008d80    0000000c     sysbios.aem4f : BIOS.obj (.text:ti_sysbios_knl_Clock_getTicks__E)
                  00008d8c    0000000c     FirstPlace_pem4f.oem4f (.text:ti_sysbios_knl_Queue_Object__get__S)
                  00008d98    0000000c     FirstPlace_pem4f.oem4f (.text:ti_sysbios_knl_Semaphore_Params__init__S)
                  00008da4    0000000c     FirstPlace_pem4f.oem4f (.text:ti_sysbios_knl_Task_Params__init__S)
                  00008db0    0000000c     ti.targets.arm.rtsarm.aem4f : Error.oem4f (.text:xdc_runtime_Error_init__E)
                  00008dbc    0000000c                                 : Gate.oem4f (.text:xdc_runtime_Gate_enterSystem__E)
                  00008dc8    0000000c                                 : Memory.oem4f (.text:xdc_runtime_Memory_calloc__E)
                  00008dd4    0000000c                                 : Memory.oem4f (.text:xdc_runtime_Memory_getMaxDefaultTypeAlign__E)
                  00008de0    0000000a     driverlib.lib : adc.obj (.text:ADCIntClear)
                  00008dea    0000000a     drivers_tivaware.aem4f : PWM.oem4f (.text:PWM_setDuty)
                  00008df4    0000000a     driverlib.lib : uart.obj (.text:UARTCharGet)
                  00008dfe    0000000a                   : uart.obj (.text:UARTCharPut)
                  00008e08    0000000a                   : uart.obj (.text:UARTIntDisable)
                  00008e12    0000000a                   : uart.obj (.text:UARTIntStatus)
                  00008e1c    0000000a     drivers_tivaware.aem4f : UART.oem4f (.text:UART_read)
                  00008e26    0000000a                            : UART.oem4f (.text:UART_write)
                  00008e30    0000000a     rtsv7M4_T_le_v4SPD16_eabi.lib : sprintf.c.obj (.text:_outc)
                  00008e3a    00000006     Boot.aem4f : Boot_sysctl.oem4f (.text:ti_catalog_arm_cortexm4_tiva_ce_Boot_sysCtlDelayI__I)
                  00008e40    0000000a     sysbios.aem4f : BIOS.obj (.text:ti_sysbios_hal_Timer_Instance_finalize__E)
                  00008e4a    0000000a     FirstPlace_pem4f.oem4f (.text:xdc_runtime_IHeap_alloc)
                  00008e54    0000000a     FirstPlace_pem4f.oem4f (.text:xdc_runtime_IHeap_free)
                  00008e5e    00000008     robot.obj (.text:ROBOT_initGPIO)
                  00008e66    00000008     driverlib.lib : uart.obj (.text:UARTIntEnable)
                  00008e6e    00000008                   : uart.obj (.text:UARTRxErrorGet)
                  00008e76    00000002     --HOLE-- [fill = 0]
                  00008e78    00000008     rtsv7M4_T_le_v4SPD16_eabi.lib : errno.c.obj (.text:__aeabi_errno_addr)
                  00008e80    00000008     drivers_tivaware.aem4f : UARTTiva.oem4f (.text:readSemCallback)
                  00008e88    00000008     sysbios.aem4f : BIOS.obj (.text:ti_sysbios_family_arm_lm4_Timer_masterDisable__I)
                  00008e90    00000008                   : BIOS.obj (.text:ti_sysbios_family_arm_m3_Hwi_doSwiRestore__I)
                  00008e98    00000008                   : BIOS.obj (.text:ti_sysbios_family_arm_m3_Hwi_startup__E)
                  00008ea0    00000008     drivers_tivaware.aem4f : UARTTiva.oem4f (.text:writeSemCallback)
                  00008ea8    00000006     sysbios.aem4f : BIOS.obj (.text:ti_sysbios_family_arm_m3_Hwi_doTaskRestore__I)
                  00008eae    00000002     --HOLE-- [fill = 0]
                  00008eb0    00000006                   : BIOS.obj (.text:ti_sysbios_family_arm_m3_Hwi_restoreFxn__E)
                  00008eb6    00000002     --HOLE-- [fill = 0]
                  00008eb8    00000006                   : BIOS.obj (.text:ti_sysbios_gates_GateHwi_leave__E)
                  00008ebe    00000002     --HOLE-- [fill = 0]
                  00008ec0    00000006                   : BIOS.obj (.text:ti_sysbios_hal_Timer_getCount__E)
                  00008ec6    00000002     --HOLE-- [fill = 0]
                  00008ec8    00000006                   : BIOS.obj (.text:ti_sysbios_hal_Timer_start__E)
                  00008ece    00000002     --HOLE-- [fill = 0]
                  00008ed0    00000006                   : BIOS.obj (.text:ti_sysbios_hal_Timer_stop__E)
                  00008ed6    00000002     --HOLE-- [fill = 0]
                  00008ed8    00000006                   : BIOS.obj (.text:ti_sysbios_heaps_HeapMem_isBlocking__E)
                  00008ede    00000002     --HOLE-- [fill = 0]
                  00008ee0    00000006                   : BIOS.obj (.text:ti_sysbios_knl_Clock_stop__E)
                  00008ee6    00000002     --HOLE-- [fill = 0]
                  00008ee8    00000006                   : BIOS.obj (.text:ti_sysbios_knl_Queue_Instance_init__E)
                  00008eee    00000002     --HOLE-- [fill = 0]
                  00008ef0    00000006                   : BIOS.obj (.text:ti_sysbios_knl_Swi_startup__E)
                  00008ef6    00000006     ti.targets.arm.rtsarm.aem4f : System.oem4f (.text:xdc_runtime_System_Module_startup__E)
                  00008efc    00000004     --HOLE-- [fill = 0]
                  00008f00    00000004     sysbios.aem4f : BIOS.obj (.text:ti_sysbios_gates_GateHwi_query__E)
                  00008f04    00000004     --HOLE-- [fill = 0]
                  00008f08    00000004                   : BIOS.obj (.text:ti_sysbios_gates_GateMutex_query__E)
                  00008f0c    00000004     --HOLE-- [fill = 0]
                  00008f10    00000004                   : BIOS.obj (.text:ti_sysbios_knl_Task_startup__E)
                  00008f14    00000004     --HOLE-- [fill = 0]
                  00008f18    00000002                   : BIOS.obj (.text:ti_sysbios_gates_GateHwi_Instance_init__E)
                  00008f1a    00000006     --HOLE-- [fill = 0]
                  00008f20    00000002                   : BIOS.obj (.text:ti_sysbios_knl_Clock_logTick__E)

.const     0    00008f28    000022ac     
                  00008f28    00001844     FirstPlace_pem4f.oem4f (.const:xdc_runtime_Text_charTab__A)
                  0000a76c    00000101     rtsv7M4_T_le_v4SPD16_eabi.lib : ctype.c.obj (.const:.string:_ctypes_)
                  0000a86d    00000001     FirstPlace_pem4f.oem4f (.const:xdc_runtime_Error_policy__C)
                  0000a86e    00000002     FirstPlace_pem4f.oem4f (.const:ti_catalog_arm_cortexm4_tiva_ce_Boot_Module__id__C)
                  0000a870    000000c8     rtsv7M4_T_le_v4SPD16_eabi.lib : strtod.c.obj (.const:$O1$$)
                  0000a938    000000c0     FirstPlace_pem4f.oem4f (.const:xdc_runtime_Text_nodeTab__A)
                  0000a9f8    00000090     driverlib.lib : gpio.obj (.const:g_pui32GPIOBaseAddrs)
                  0000aa88    00000054     drivers_tivaware.aem4f : GPIOTiva.oem4f (.const:.string)
                  0000aadc    0000004c                            : UARTTiva.oem4f (.const)
                  0000ab28    00000048     FirstPlace_pem4f.oem4f (.const:.string)
                  0000ab70    00000048     drivers_tivaware.aem4f : GPIOTiva.oem4f (.const:gpioBaseAddresses)
                  0000abb8    0000003c     FirstPlace_pem4f.oem4f (.const:ti_sysbios_family_arm_lm4_Timer_Object__PARAMS__C)
                  0000abf4    0000003c     FirstPlace_pem4f.oem4f (.const:ti_sysbios_knl_Task_Object__PARAMS__C)
                  0000ac30    00000030     FirstPlace_pem4f.oem4f (.const:ti_sysbios_family_arm_m3_Hwi_Object__PARAMS__C)
                  0000ac60    00000030     FirstPlace_pem4f.oem4f (.const:ti_sysbios_hal_Timer_Object__PARAMS__C)
                  0000ac90    00000030     robot.obj (.const:uartRobotHWAttrs)
                  0000acc0    00000028     drivers_tivaware.aem4f : UARTTiva.oem4f (.const:UARTTiva_fxnTable)
                  0000ace8    00000028     FirstPlace_pem4f.oem4f (.const:ti_sysbios_heaps_HeapMem_Module__FXNS__C)
                  0000ad10    00000024     robot.obj (.const:PWM_config)
                  0000ad34    00000024     robot.obj (.const:UART_config)
                  0000ad58    00000024     drivers_tivaware.aem4f : UART.oem4f (.const:UART_defaultParams)
                  0000ad7c    00000024     FirstPlace_pem4f.oem4f (.const:ti_sysbios_gates_GateHwi_Module__FXNS__C)
                  0000ada0    00000024     FirstPlace_pem4f.oem4f (.const:ti_sysbios_gates_GateMutex_Module__FXNS__C)
                  0000adc4    00000024     FirstPlace_pem4f.oem4f (.const:ti_sysbios_heaps_HeapMem_Object__PARAMS__C)
                  0000ade8    00000024     FirstPlace_pem4f.oem4f (.const:ti_sysbios_knl_Clock_Object__PARAMS__C)
                  0000ae0c    00000024     FirstPlace_pem4f.oem4f (.const:ti_sysbios_knl_Semaphore_Object__PARAMS__C)
                  0000ae30    00000024     FirstPlace_pem4f.oem4f (.const:xdc_runtime_Startup_sfxnTab__A)
                  0000ae54    00000020     drivers_tivaware.aem4f : PWMTiva.oem4f (.const)
                  0000ae74    00000020     FirstPlace_pem4f.oem4f (.const:ti_sysbios_family_arm_lm4_Timer_Object__DESC__C)
                  0000ae94    00000020     FirstPlace_pem4f.oem4f (.const:ti_sysbios_family_arm_m3_Hwi_Object__DESC__C)
                  0000aeb4    00000020     FirstPlace_pem4f.oem4f (.const:ti_sysbios_gates_GateHwi_Object__DESC__C)
                  0000aed4    00000020     FirstPlace_pem4f.oem4f (.const:ti_sysbios_gates_GateMutex_Object__DESC__C)
                  0000aef4    00000020     FirstPlace_pem4f.oem4f (.const:ti_sysbios_hal_Timer_Object__DESC__C)
                  0000af14    00000020     FirstPlace_pem4f.oem4f (.const:ti_sysbios_heaps_HeapMem_Object__DESC__C)
                  0000af34    00000020     FirstPlace_pem4f.oem4f (.const:ti_sysbios_knl_Clock_Object__DESC__C)
                  0000af54    00000020     FirstPlace_pem4f.oem4f (.const:ti_sysbios_knl_Queue_Object__DESC__C)
                  0000af74    00000020     FirstPlace_pem4f.oem4f (.const:ti_sysbios_knl_Semaphore_Object__DESC__C)
                  0000af94    00000020     FirstPlace_pem4f.oem4f (.const:ti_sysbios_knl_Task_Object__DESC__C)
                  0000afb4    00000018     robot.obj (.const:pwmTivaHWAttrs)
                  0000afcc    00000018     FirstPlace_pem4f.oem4f (.const:ti_sysbios_gates_GateHwi_Object__PARAMS__C)
                  0000afe4    00000018     FirstPlace_pem4f.oem4f (.const:ti_sysbios_gates_GateMutex_Object__PARAMS__C)
                  0000affc    00000018     FirstPlace_pem4f.oem4f (.const:ti_sysbios_knl_Queue_Object__PARAMS__C)
                  0000b014    00000014     robot.obj (.const:GPIOTiva_config)
                  0000b028    00000014     FirstPlace_pem4f.oem4f (.const:xdc_runtime_Startup_firstFxns__A)
                  0000b03c    00000012     FirstPlace_pem4f.oem4f (.const:xdc_runtime_Startup_sfxnRts__A)
                  0000b04e    00000002     FirstPlace_pem4f.oem4f (.const:ti_sysbios_family_arm_lm4_Timer_Module__id__C)
                  0000b050    0000000c     drivers_tivaware.aem4f : PWM.oem4f (.const)
                  0000b05c    00000008     FirstPlace_pem4f.oem4f (.const:ti_sysbios_family_arm_m3_Hwi_excHookFuncs__A)
                  0000b064    00000008     FirstPlace_pem4f.oem4f (.const:ti_sysbios_knl_Idle_funcList__C)
                  0000b06c    00000008     FirstPlace_pem4f.oem4f (.const:xdc_runtime_Startup_firstFxns__C)
                  0000b074    00000008     FirstPlace_pem4f.oem4f (.const:xdc_runtime_Startup_lastFxns__C)
                  0000b07c    00000004     FirstPlace_pem4f.oem4f (.const:ti_catalog_arm_cortexm4_tiva_ce_Boot_A_mustUseEnhancedClockMode__C)
                  0000b080    00000004     FirstPlace_pem4f.oem4f (.const:ti_catalog_arm_cortexm4_tiva_ce_Boot_Module__diagsEnabled__C)
                  0000b084    00000004     FirstPlace_pem4f.oem4f (.const:ti_catalog_arm_cortexm4_tiva_ce_Boot_Module__diagsIncluded__C)
                  0000b088    00000004     FirstPlace_pem4f.oem4f (.const:ti_catalog_arm_cortexm4_tiva_ce_Boot_Module__diagsMask__C)
                  0000b08c    00000004     FirstPlace_pem4f.oem4f (.const:ti_sysbios_family_arm_lm4_Timer_E_cannotSupport__C)
                  0000b090    00000004     FirstPlace_pem4f.oem4f (.const:ti_sysbios_family_arm_lm4_Timer_E_invalidTimer__C)
                  0000b094    00000004     FirstPlace_pem4f.oem4f (.const:ti_sysbios_family_arm_lm4_Timer_E_noaltclk__C)
                  0000b098    00000004     FirstPlace_pem4f.oem4f (.const:ti_sysbios_family_arm_lm4_Timer_E_notAvailable__C)
                  0000b09c    00000004     FirstPlace_pem4f.oem4f (.const:ti_sysbios_family_arm_lm4_Timer_anyMask__C)
                  0000b0a0    00000004     FirstPlace_pem4f.oem4f (.const:ti_sysbios_family_arm_lm4_Timer_disableFunc__C)
                  0000b0a4    00000004     FirstPlace_pem4f.oem4f (.const:ti_sysbios_family_arm_lm4_Timer_enableFunc__C)
                  0000b0a8    00000004     FirstPlace_pem4f.oem4f (.const:ti_sysbios_family_arm_lm4_Timer_numTimerDevices__C)
                  0000b0ac    00000004     FirstPlace_pem4f.oem4f (.const:ti_sysbios_family_arm_lm4_Timer_startupNeeded__C)
                  0000b0b0    00000004     FirstPlace_pem4f.oem4f (.const:ti_sysbios_family_arm_m3_Hwi_E_NMI__C)
                  0000b0b4    00000004     FirstPlace_pem4f.oem4f (.const:ti_sysbios_family_arm_m3_Hwi_E_alreadyDefined__C)
                  0000b0b8    00000004     FirstPlace_pem4f.oem4f (.const:ti_sysbios_family_arm_m3_Hwi_E_busFault__C)
                  0000b0bc    00000004     FirstPlace_pem4f.oem4f (.const:ti_sysbios_family_arm_m3_Hwi_E_debugMon__C)
                  0000b0c0    00000004     FirstPlace_pem4f.oem4f (.const:ti_sysbios_family_arm_m3_Hwi_E_hardFault__C)
                  0000b0c4    00000004     FirstPlace_pem4f.oem4f (.const:ti_sysbios_family_arm_m3_Hwi_E_memFault__C)
                  0000b0c8    00000004     FirstPlace_pem4f.oem4f (.const:ti_sysbios_family_arm_m3_Hwi_E_noIsr__C)
                  0000b0cc    00000004     FirstPlace_pem4f.oem4f (.const:ti_sysbios_family_arm_m3_Hwi_E_reserved__C)
                  0000b0d0    00000004     FirstPlace_pem4f.oem4f (.const:ti_sysbios_family_arm_m3_Hwi_E_svCall__C)
                  0000b0d4    00000004     FirstPlace_pem4f.oem4f (.const:ti_sysbios_family_arm_m3_Hwi_E_usageFault__C)
                  0000b0d8    00000004     FirstPlace_pem4f.oem4f (.const:ti_sysbios_family_arm_m3_Hwi_NUM_INTERRUPTS__C)
                  0000b0dc    00000004     FirstPlace_pem4f.oem4f (.const:ti_sysbios_family_arm_m3_Hwi_Object__count__C)
                  0000b0e0    00000004     FirstPlace_pem4f.oem4f (.const:ti_sysbios_family_arm_m3_Hwi_ccr__C)
                  0000b0e4    00000004     FirstPlace_pem4f.oem4f (.const:ti_sysbios_family_arm_m3_Hwi_excHandlerFunc__C)
                  0000b0e8    00000004     FirstPlace_pem4f.oem4f (.const:ti_sysbios_family_arm_m3_Hwi_excHookFuncs__C)
                  0000b0ec    00000004     FirstPlace_pem4f.oem4f (.const:ti_sysbios_family_arm_m3_Hwi_nullIsrFunc__C)
                  0000b0f0    00000004     FirstPlace_pem4f.oem4f (.const:ti_sysbios_family_arm_m3_Hwi_priGroup__C)
                  0000b0f4    00000004     FirstPlace_pem4f.oem4f (.const:ti_sysbios_family_arm_m3_TaskSupport_stackAlignment__C)
                  0000b0f8    00000004     FirstPlace_pem4f.oem4f (.const:ti_sysbios_gates_GateMutex_Instance_State_sem__O)
                  0000b0fc    00000004     FirstPlace_pem4f.oem4f (.const:ti_sysbios_heaps_HeapMem_E_memory__C)
                  0000b100    00000004     FirstPlace_pem4f.oem4f (.const:ti_sysbios_heaps_HeapMem_Module__gateObj__C)
                  0000b104    00000004     FirstPlace_pem4f.oem4f (.const:ti_sysbios_heaps_HeapMem_Object__count__C)
                  0000b108    00000004     FirstPlace_pem4f.oem4f (.const:ti_sysbios_heaps_HeapMem_reqAlign__C)
                  0000b10c    00000004     FirstPlace_pem4f.oem4f (.const:ti_sysbios_knl_Clock_Module_State_clockQ__O)
                  0000b110    00000004     FirstPlace_pem4f.oem4f (.const:ti_sysbios_knl_Semaphore_Instance_State_pendQ__O)
                  0000b114    00000004     FirstPlace_pem4f.oem4f (.const:ti_sysbios_knl_Swi_Object__count__C)
                  0000b118    00000004     FirstPlace_pem4f.oem4f (.const:ti_sysbios_knl_Task_Module_State_inactiveQ__O)
                  0000b11c    00000004     FirstPlace_pem4f.oem4f (.const:ti_sysbios_knl_Task_Object__count__C)
                  0000b120    00000004     FirstPlace_pem4f.oem4f (.const:ti_sysbios_knl_Task_allBlockedFunc__C)
                  0000b124    00000004     FirstPlace_pem4f.oem4f (.const:ti_sysbios_knl_Task_defaultStackHeap__C)
                  0000b128    00000004     FirstPlace_pem4f.oem4f (.const:ti_sysbios_knl_Task_defaultStackSize__C)
                  0000b12c    00000004     FirstPlace_pem4f.oem4f (.const:ti_sysbios_knl_Task_numConstructedTasks__C)
                  0000b130    00000004     FirstPlace_pem4f.oem4f (.const:xdc_runtime_Assert_E_assertFailed__C)
                  0000b134    00000004     FirstPlace_pem4f.oem4f (.const:xdc_runtime_Core_A_initializedParams__C)
                  0000b138    00000004     FirstPlace_pem4f.oem4f (.const:xdc_runtime_Core_Module__diagsEnabled__C)
                  0000b13c    00000004     FirstPlace_pem4f.oem4f (.const:xdc_runtime_Core_Module__diagsIncluded__C)
                  0000b140    00000004     FirstPlace_pem4f.oem4f (.const:xdc_runtime_Core_Module__diagsMask__C)
                  0000b144    00000004     FirstPlace_pem4f.oem4f (.const:xdc_runtime_Error_E_memory__C)
                  0000b148    00000004     FirstPlace_pem4f.oem4f (.const:xdc_runtime_Error_Module__diagsEnabled__C)
                  0000b14c    00000004     FirstPlace_pem4f.oem4f (.const:xdc_runtime_Error_Module__diagsIncluded__C)
                  0000b150    00000004     FirstPlace_pem4f.oem4f (.const:xdc_runtime_Error_Module__diagsMask__C)
                  0000b154    00000004     FirstPlace_pem4f.oem4f (.const:xdc_runtime_Error_Module__loggerFxn8__C)
                  0000b158    00000004     FirstPlace_pem4f.oem4f (.const:xdc_runtime_Error_Module__loggerObj__C)
                  0000b15c    00000004     FirstPlace_pem4f.oem4f (.const:xdc_runtime_Error_policyFxn__C)
                  0000b160    00000004     FirstPlace_pem4f.oem4f (.const:xdc_runtime_Error_raiseHook__C)
                  0000b164    00000004     FirstPlace_pem4f.oem4f (.const:xdc_runtime_IGateProvider_Interface__BASE__C)
                  0000b168    00000004     FirstPlace_pem4f.oem4f (.const:xdc_runtime_IHeap_Interface__BASE__C)
                  0000b16c    00000004     FirstPlace_pem4f.oem4f (.const:xdc_runtime_IModule_Interface__BASE__C)
                  0000b170    00000004     FirstPlace_pem4f.oem4f (.const:xdc_runtime_Log_L_error__C)
                  0000b174    00000004     FirstPlace_pem4f.oem4f (.const:xdc_runtime_Memory_defaultHeapInstance__C)
                  0000b178    00000004     FirstPlace_pem4f.oem4f (.const:xdc_runtime_Startup_execImpl__C)
                  0000b17c    00000004     FirstPlace_pem4f.oem4f (.const:xdc_runtime_Startup_maxPasses__C)
                  0000b180    00000004     FirstPlace_pem4f.oem4f (.const:xdc_runtime_Startup_sfxnRts__C)
                  0000b184    00000004     FirstPlace_pem4f.oem4f (.const:xdc_runtime_Startup_sfxnTab__C)
                  0000b188    00000004     FirstPlace_pem4f.oem4f (.const:xdc_runtime_SysMin_bufSize__C)
                  0000b18c    00000004     FirstPlace_pem4f.oem4f (.const:xdc_runtime_SysMin_outputFunc__C)
                  0000b190    00000004     FirstPlace_pem4f.oem4f (.const:xdc_runtime_System_Module__gateObj__C)
                  0000b194    00000004     FirstPlace_pem4f.oem4f (.const:xdc_runtime_System_abortFxn__C)
                  0000b198    00000004     FirstPlace_pem4f.oem4f (.const:xdc_runtime_System_exitFxn__C)
                  0000b19c    00000004     FirstPlace_pem4f.oem4f (.const:xdc_runtime_System_extendFxn__C)
                  0000b1a0    00000004     FirstPlace_pem4f.oem4f (.const:xdc_runtime_System_maxAtexitHandlers__C)
                  0000b1a4    00000004     FirstPlace_pem4f.oem4f (.const:xdc_runtime_Text_charTab__C)
                  0000b1a8    00000004     FirstPlace_pem4f.oem4f (.const:xdc_runtime_Text_nameEmpty__C)
                  0000b1ac    00000004     FirstPlace_pem4f.oem4f (.const:xdc_runtime_Text_nameStatic__C)
                  0000b1b0    00000004     FirstPlace_pem4f.oem4f (.const:xdc_runtime_Text_nameUnknown__C)
                  0000b1b4    00000004     FirstPlace_pem4f.oem4f (.const:xdc_runtime_Text_nodeTab__C)
                  0000b1b8    00000004     FirstPlace_pem4f.oem4f (.const:xdc_runtime_Text_visitRopeFxn__C)
                  0000b1bc    00000002     FirstPlace_pem4f.oem4f (.const:ti_sysbios_family_arm_lm4_Timer_supportsAltclk__C)
                  0000b1be    00000002     FirstPlace_pem4f.oem4f (.const:ti_sysbios_family_arm_m3_Hwi_Module__id__C)
                  0000b1c0    00000002     FirstPlace_pem4f.oem4f (.const:ti_sysbios_heaps_HeapMem_Module__id__C)
                  0000b1c2    00000002     FirstPlace_pem4f.oem4f (.const:xdc_runtime_Core_Module__id__C)
                  0000b1c4    00000002     FirstPlace_pem4f.oem4f (.const:xdc_runtime_Error_Module__loggerDefined__C)
                  0000b1c6    00000002     FirstPlace_pem4f.oem4f (.const:xdc_runtime_Error_maxDepth__C)
                  0000b1c8    00000002     FirstPlace_pem4f.oem4f (.const:xdc_runtime_Memory_Module__id__C)
                  0000b1ca    00000002     FirstPlace_pem4f.oem4f (.const:xdc_runtime_SysMin_flushAtExit__C)
                  0000b1cc    00000002     FirstPlace_pem4f.oem4f (.const:xdc_runtime_Text_charCnt__C)
                  0000b1ce    00000002     FirstPlace_pem4f.oem4f (.const:xdc_runtime_Text_isLoaded__C)
                  0000b1d0    00000002     FirstPlace_pem4f.oem4f (.const:xdc_runtime_Text_registryModsLastId__C)
                  0000b1d2    00000002     FirstPlace_pem4f.oem4f (.const:xdc_runtime_Text_unnamedModsLastId__C)

.cinit     0    0000b1d8    00000208     
                  0000b1d8    000001d2     (.cinit..data.load) [load image, compression = lzss]
                  0000b3aa    00000002     --HOLE-- [fill = 0]
                  0000b3ac    0000000c     (__TI_handler_table)
                  0000b3b8    00000008     (.cinit..bss.load) [load image, compression = zero_init]
                  0000b3c0    00000008     (.cinit..vecs.load) [load image, compression = zero_init]
                  0000b3c8    00000018     (__TI_cinit_table)

.init_array 
*          0    00000000    00000000     UNINITIALIZED

.resetVecs 
*          0    00000000    0000003c     
                  00000000    0000003c     FirstPlace_pem4f.oem4f (.resetVecs)

.bss       0    20000360    00002ac4     UNINITIALIZED
                  20000360    00001c00     (.common:taskStack)
                  20001f60    00000400     (.common:ti_sysbios_heaps_HeapMem_Instance_State_0_buf__A)
                  20002360    00000360     (.common:ti_sysbios_family_arm_m3_Hwi_dispatchTable)
                  200026c0    00000230     (.common:taskStruct)
                  200028f0    00000198     (.common:uartRobotObjects)
                  20002a88    00000120     rtsv7M4_T_le_v4SPD16_eabi.lib : trgmsg.c.obj (.bss:_CIOBUF_)
                  20002ba8    00000090     drivers_tivaware.aem4f : GPIOTiva.oem4f (.bss:gpioCallbackInfo)
                  20002c38    00000080     (.common:xdc_runtime_SysMin_Module_State_0_outbuf__A)
                  20002cb8    00000050     (.common:ping)
                  20002d08    00000050     (.common:pong)
                  20002d58    00000040     (.common:uartRobotRingBuffer)
                  20002d98    0000001c     (.common:Timer)
                  20002db4    00000010     (.common:pwmTivaObjects)
                  20002dc4    00000008     (.common:parmbuf)
                  20002dcc    00000004     FirstPlace.obj (.bss)
                  20002dd0    00000004     (.common:Kd)
                  20002dd4    00000004     (.common:Ki)
                  20002dd8    00000004     (.common:Kp)
                  20002ddc    00000004     (.common:Kpid)
                  20002de0    00000004     (.common:USBSerial_uart)
                  20002de4    00000004     (.common:blinkySem)
                  20002de8    00000004     (.common:blueSmurf_uart)
                  20002dec    00000004     (.common:brake)
                  20002df0    00000004     (.common:bufCount)
                  20002df4    00000004     (.common:dirL)
                  20002df8    00000004     (.common:dirR)
                  20002dfc    00000004     (.common:disFront)
                  20002e00    00000004     (.common:disRight)
                  20002e04    00000004     (.common:dutyPA6)
                  20002e08    00000004     (.common:dutyPA7)
                  20002e0c    00000004     (.common:gpioInterruptVectors)
                  20002e10    00000004     (.common:pidSem)
                  20002e14    00000004     (.common:pwmSem)
                  20002e18    00000004     (.common:reflSem)
                  20002e1c    00000004     (.common:sendSem)
                  20002e20    00000004     (.common:stateSem)

.data      0    20002e24    0000041a     UNINITIALIZED
                  20002e24    00000080     FirstPlace_pem4f.oem4f (.data:ti_sysbios_knl_Swi_Module_State_0_readyQ__A)
                  20002ea4    00000080     FirstPlace_pem4f.oem4f (.data:ti_sysbios_knl_Task_Module_State_0_readyQ__A)
                  20002f24    00000044     FirstPlace_pem4f.oem4f (.data:ti_sysbios_knl_Task_Module__state__V)
                  20002f68    00000040     FirstPlace_pem4f.oem4f (.data:ti_sysbios_family_arm_lm4_Timer_Object__table__V)
                  20002fa8    00000038     FirstPlace_pem4f.oem4f (.data:ti_sysbios_gates_GateMutex_Object__table__V)
                  20002fe0    00000034     FirstPlace_pem4f.oem4f (.data:ti_sysbios_family_arm_m3_Hwi_Module__state__V)
                  20003014    00000030     FirstPlace_pem4f.oem4f (.data:ti_sysbios_family_arm_lm4_Timer_Module_State_0_device__A)
                  20003044    00000030     FirstPlace_pem4f.oem4f (.data:ti_sysbios_knl_Swi_Object__table__V)
                  20003074    0000002c     FirstPlace_pem4f.oem4f (.data:ti_sysbios_knl_Clock_Module__state__V)
                  200030a0    00000024     FirstPlace_pem4f.oem4f (.data:ti_sysbios_BIOS_Module__state__V)
                  200030c4    0000001c     FirstPlace.obj (.data)
                  200030e0    0000001c     robot.obj (.data:gpioPinConfigs)
                  200030fc    0000001c     FirstPlace_pem4f.oem4f (.data:ti_sysbios_knl_Swi_Module__state__V)
                  20003118    00000018     drivers_tivaware.aem4f : PWMTiva.oem4f (.data)
                  20003130    00000018     FirstPlace_pem4f.oem4f (.data:ti_sysbios_family_arm_lm4_Timer_Module_State_0_handles__A)
                  20003148    00000018     FirstPlace_pem4f.oem4f (.data:ti_sysbios_family_arm_m3_Hwi_Object__table__V)
                  20003160    00000018     FirstPlace_pem4f.oem4f (.data:ti_sysbios_heaps_HeapMem_Object__table__V)
                  20003178    0000000c     FirstPlace_pem4f.oem4f (.data:ti_sysbios_family_arm_lm4_Timer_Module__state__V)
                  20003184    0000000c     FirstPlace_pem4f.oem4f (.data:xdc_runtime_SysMin_Module__state__V)
                  20003190    00000008     rtsv7M4_T_le_v4SPD16_eabi.lib : _lock.c.obj (.data:$O1$$)
                  20003198    00000008     robot.obj (.data:gpioCallbackFunctions)
                  200031a0    00000008     FirstPlace_pem4f.oem4f (.data:ti_sysbios_family_arm_lm4_Timer_Module__root__V)
                  200031a8    00000008     FirstPlace_pem4f.oem4f (.data:ti_sysbios_family_arm_m3_Hwi_Module__root__V)
                  200031b0    00000008     FirstPlace_pem4f.oem4f (.data:ti_sysbios_gates_GateHwi_Module__root__V)
                  200031b8    00000008     FirstPlace_pem4f.oem4f (.data:ti_sysbios_gates_GateMutex_Module__root__V)
                  200031c0    00000008     FirstPlace_pem4f.oem4f (.data:ti_sysbios_hal_Timer_Module__root__V)
                  200031c8    00000008     FirstPlace_pem4f.oem4f (.data:ti_sysbios_heaps_HeapMem_Module__root__V)
                  200031d0    00000008     FirstPlace_pem4f.oem4f (.data:ti_sysbios_knl_Clock_Module__root__V)
                  200031d8    00000008     FirstPlace_pem4f.oem4f (.data:ti_sysbios_knl_Queue_Module__root__V)
                  200031e0    00000008     FirstPlace_pem4f.oem4f (.data:ti_sysbios_knl_Semaphore_Module__root__V)
                  200031e8    00000008     FirstPlace_pem4f.oem4f (.data:ti_sysbios_knl_Task_Module__root__V)
                  200031f0    00000008     FirstPlace_pem4f.oem4f (.data:xdc_runtime_Registry_Module__state__V)
                  200031f8    00000008     FirstPlace_pem4f.oem4f (.data:xdc_runtime_Startup_Module__state__V)
                  20003200    00000008     FirstPlace_pem4f.oem4f (.data:xdc_runtime_System_Module_State_0_atexitHandlers__A)
                  20003208    00000008     FirstPlace_pem4f.oem4f (.data:xdc_runtime_System_Module__state__V)
                  20003210    00000005     drivers_tivaware.aem4f : GPIOTiva.oem4f (.data)
                  20003215    00000001     --HOLE--
                  20003216    00000002     FirstPlace_pem4f.oem4f (.data:ti_sysbios_family_arm_m3_Hwi_Module_State_0_excActive__A)
                  20003218    00000004     drivers_tivaware.aem4f : PWM.oem4f (.data)
                  2000321c    00000004                            : UART.oem4f (.data)
                  20003220    00000004     rtsv7M4_T_le_v4SPD16_eabi.lib : errno.c.obj (.data)
                  20003224    00000004                                   : stkdepth_vars.c.obj (.data)
                  20003228    00000004     FirstPlace_pem4f.oem4f (.data:ti_sysbios_family_arm_m3_Hwi_Module_State_0_excContext__A)
                  2000322c    00000004     FirstPlace_pem4f.oem4f (.data:ti_sysbios_family_arm_m3_Hwi_Module_State_0_excStack__A)
                  20003230    00000004     FirstPlace_pem4f.oem4f (.data:ti_sysbios_gates_GateHwi_Object__table__V)
                  20003234    00000004     FirstPlace_pem4f.oem4f (.data:ti_sysbios_knl_Task_Module_State_0_idleTask__A)
                  20003238    00000004     FirstPlace_pem4f.oem4f (.data:xdc_runtime_Memory_Module__state__V)
                  2000323c    00000002     FirstPlace_pem4f.oem4f (.data:xdc_runtime_Error_Module__state__V)

.stack     0    20003240    00000300     UNINITIALIZED
                  20003240    00000300     --HOLE--

.bootVecs 
*          0    00000000    00000008     DSECT
                  00000000    00000008     boot.aem4f : boot.oem4f (.bootVecs)

.vecs      0    20000000    00000360     UNINITIALIZED
                  20000000    00000360     FirstPlace_pem4f.oem4f (.vecs)

xdc.meta   0    00000000    000000e4     COPY SECTION
                  00000000    000000e4     FirstPlace_pem4f.oem4f (xdc.meta)

MODULE SUMMARY

       Module                       code    ro data   rw data
       ------                       ----    -------   -------
    .\
       FirstPlace.obj               3214    0         8028   
       robot.obj                    356     164       524    
    +--+----------------------------+-------+---------+---------+
       Total:                       3570    164       8552   
                                                             
    C:\Users\PhongBach\git\firstplacerobot\Debug\configPkg\package\cfg\
       FirstPlace_pem4f.oem4f       2284    7819      3812   
    +--+----------------------------+-------+---------+---------+
       Total:                       2284    7819      3812   
                                                             
    C:/ti/tirtos_tivac_2_16_00_08/products/TivaWare_C_Series-2.1.1.71b/driverlib/ccs/Debug/driverlib.lib
       gpio.obj                     634     144       0      
       adc.obj                      308     0         0      
       uart.obj                     226     0         0      
       pwm.obj                      178     0         0      
       sysctl.obj                   72      0         0      
    +--+----------------------------+-------+---------+---------+
       Total:                       1418    144       0      
                                                             
    C:/ti/tirtos_tivac_2_16_00_08/products/tidrivers_tivac_2_16_00_08/packages/ti/drivers/lib/drivers_tivaware.aem4f
       UARTTiva.oem4f               2262    116       0      
       GPIOTiva.oem4f               940     156       153    
       PWMTiva.oem4f                962     32        24     
       UART.oem4f                   148     36        4      
       RingBuf.oem4f                164     0         0      
       PWM.oem4f                    130     12        4      
    +--+----------------------------+-------+---------+---------+
       Total:                       4606    352       185    
                                                             
    C:\Users\PhongBach\git\firstplacerobot\src\sysbios\sysbios.aem4f
       BIOS.obj                     9888    0         0      
       m3_Hwi_asm.obj               314     0         0      
       m3_TaskSupport_asm.obj       180     0         0      
       m3_Hwi_asm_switch.obj        118     0         0      
    +--+----------------------------+-------+---------+---------+
       Total:                       10500   0         0      
                                                             
    C:\ti\ccsv8\tools\compiler\ti-cgt-arm_18.1.2.LTS\lib\rtsv7M4_T_le_v4SPD16_eabi.lib
       _printfi.c.obj               4863    0         0      
       strtod.c.obj                 1120    200       0      
       fd_add_t2.asm.obj            438     0         0      
       trgmsg.c.obj                 108     0         288    
       fd_div_t2.asm.obj            310     0         0      
       s_scalbn.c.obj               272     0         0      
       fd_cmp_t2.asm.obj            268     0         0      
       ctype.c.obj                  0       257       0      
       fd_mul_t2.asm.obj            252     0         0      
       memcpy_t2.asm.obj            156     0         0      
       ull_div_t2.asm.obj           150     0         0      
       memset_t2.asm.obj            122     0         0      
       fd_tos_t2.asm.obj            110     0         0      
       copy_decompress_lzss.c.obj   104     0         0      
       s_frexp.c.obj                100     0         0      
       sprintf.c.obj                98      0         0      
       hostwrite.c.obj              88      0         0      
       ltoa.c.obj                   84      0         0      
       atoi.c.obj                   76      0         0      
       cpy_tbl.c.obj                76      0         0      
       fd_toi_t2.asm.obj            72      0         0      
       fd_tou_t2.asm.obj            68      0         0      
       u_divt2.asm.obj              64      0         0      
       fs_tod_t2.asm.obj            56      0         0      
       i_tofd_t2.asm.obj            46      0         0      
       _lock.c.obj                  26      0         8      
       u_tofd_t2.asm.obj            32      0         0      
       memccpy.c.obj                28      0         0      
       args_main.c.obj              24      0         0      
       strchr.c.obj                 22      0         0      
       s_copysign.c.obj             20      0         0      
       strlen.c.obj                 20      0         0      
       atof.c.obj                   18      0         0      
       wcslen.c.obj                 18      0         0      
       copy_decompress_none.c.obj   14      0         0      
       copy_zero_init.c.obj         12      0         0      
       errno.c.obj                  8       0         4      
       hostopen.c.obj               0       0         8      
       exit.c.obj                   4       0         0      
       stkdepth_vars.c.obj          0       0         4      
       div0.asm.obj                 2       0         0      
    +--+----------------------------+-------+---------+---------+
       Total:                       9349    457       312    
                                                             
    C:\ti\tirtos_tivac_2_16_00_08\products\bios_6_45_01_29\packages\ti\catalog\arm\cortexm4\tiva\ce\lib\Boot.aem4f
       Boot_sysctl.oem4f            262     0         0      
       Boot.oem4f                   152     0         0      
    +--+----------------------------+-------+---------+---------+
       Total:                       414     0         0      
                                                             
    C:\ti\tirtos_tivac_2_16_00_08\products\bios_6_45_01_29\packages\ti\targets\arm\rtsarm\lib\auto_init.aem4f
       auto_init.oem4f              160     0         0      
    +--+----------------------------+-------+---------+---------+
       Total:                       160     0         0      
                                                             
    C:\ti\tirtos_tivac_2_16_00_08\products\bios_6_45_01_29\packages\ti\targets\arm\rtsarm\lib\boot.aem4f
       boot.oem4f                   88      0         0      
    +--+----------------------------+-------+---------+---------+
       Total:                       88      0         0      
                                                             
    C:\ti\tirtos_tivac_2_16_00_08\products\bios_6_45_01_29\packages\ti\targets\arm\rtsarm\lib\ti.targets.arm.rtsarm.aem4f
       System.oem4f                 1255    0         0      
       Text.oem4f                   672     0         0      
       Error.oem4f                  524     0         0      
       Core-mem.oem4f               358     0         0      
       Startup.oem4f                328     0         0      
       SysMin.oem4f                 248     0         0      
       Core-smem.oem4f              204     0         0      
       Memory.oem4f                 176     0         0      
       Assert.oem4f                 84      0         0      
       Core-params.oem4f            70      0         0      
       Core-label.oem4f             52      0         0      
       Registry.oem4f               32      0         0      
       Gate.oem4f                   28      0         0      
    +--+----------------------------+-------+---------+---------+
       Total:                       4031    0         0      
                                                             
       Stack:                       0       0         768    
       Linker Generated:            0       518       0      
    +--+----------------------------+-------+---------+---------+
       Grand Total:                 36420   9454      13629  


LINKER GENERATED COPY TABLES

__TI_cinit_table @ 0000b3c8 records: 3, size/record: 8, table size: 24
	.data: load addr=0000b1d8, load size=000001d2 bytes, run addr=20002e24, run size=0000041a bytes, compression=lzss
	.bss: load addr=0000b3b8, load size=00000008 bytes, run addr=20000360, run size=00002ac4 bytes, compression=zero_init
	.vecs: load addr=0000b3c0, load size=00000008 bytes, run addr=20000000, run size=00000360 bytes, compression=zero_init


LINKER GENERATED HANDLER TABLE

__TI_handler_table @ 0000b3ac records: 3, size/record: 4, table size: 12
	index: 0, handler: __TI_decompress_lzss
	index: 1, handler: __TI_decompress_none
	index: 2, handler: __TI_zero_init


GLOBAL SYMBOLS: SORTED ALPHABETICALLY BY Name 

address   name                                                              
-------   ----                                                              
00008de1  ADCIntClear                                                       
00007f11  ADCIntStatus                                                      
000087b5  ADCProcessorTrigger                                               
00007621  ADCSequenceConfigure                                              
000084e1  ADCSequenceDataGet                                                
00008c31  ADCSequenceEnable                                                 
0000594d  ADCSequenceStepConfigure                                          
00002d85  C$$EXIT                                                           
00007833  C$$IO$$                                                           
00008049  GPIODirModeSet                                                    
00002933  GPIOIntClear                                                      
00008c3f  GPIOIntDisable                                                    
00008cb1  GPIOIntEnable                                                     
00008c4d  GPIOIntStatus                                                     
00006829  GPIOIntTypeSet                                                    
00003523  GPIOPadConfigSet                                                  
00006f75  GPIOPinConfigure                                                  
00004af3  GPIOPinRead                                                       
00008a2d  GPIOPinTypeADC                                                    
00008a3f  GPIOPinTypeGPIOInput                                              
00008a51  GPIOPinTypePWM                                                    
00008a63  GPIOPinTypeUART                                                   
00005abb  GPIOPinWrite                                                      
0000b014  GPIOTiva_config                                                   
00007bdd  GPIO_disableInt                                                   
00007c0d  GPIO_enableInt                                                    
00006115  GPIO_hwiIntFxn                                                    
00005385  GPIO_init                                                         
00006b21  GPIO_setCallback                                                  
00002edd  GPIO_setConfig                                                    
00006b71  GPIO_toggle                                                       
00006bc1  GPIO_write                                                        
000066c9  HOSTwrite                                                         
20002dd0  Kd                                                                
20002dd4  Ki                                                                
20002dd8  Kp                                                                
20002ddc  Kpid                                                              
000032b5  PIDTask                                                           
00008961  PWMClockSet                                                       
000082b1  PWMGenConfigure                                                   
00008cbd  PWMGenDisable                                                     
00008cc9  PWMGenEnable                                                      
00008a75  PWMGenPeriodGet                                                   
00008b1f  PWMGenPeriodSet                                                   
00008a87  PWMOutputInvert                                                   
00008a99  PWMOutputState                                                    
000084ff  PWMPulseWidthSet                                                  
0000ae72  PWMTiva_MAX_MATCH_VALUE                                           
0000ae70  PWMTiva_MAX_PRESCALAR                                             
00005f09  PWMTiva_close                                                     
000055b5  PWMTiva_control                                                   
0000ae54  PWMTiva_fxnTable                                                  
000082d3  PWMTiva_getPeriodCounts                                           
0000851d  PWMTiva_getPeriodMicroSecs                                        
00007c3d  PWMTiva_init                                                      
00002aad  PWMTiva_open                                                      
00004089  PWMTiva_setDuty                                                   
00008b31  PWM_Params_init                                                   
0000ad10  PWM_config                                                        
0000b050  PWM_defaultParams                                                 
00007795  PWM_init                                                          
00007c6d  PWM_open                                                          
00008deb  PWM_setDuty                                                       
00007991  ROBOT_ADC_sample                                                  
00005f75  ROBOT_initADC                                                     
00008e5f  ROBOT_initGPIO                                                    
00007461  ROBOT_initGeneral                                                 
00007f6d  ROBOT_initPWM                                                     
000068d5  ROBOT_initUART                                                    
00008aab  RingBuf_construct                                                 
000074a1  RingBuf_get                                                       
00008cd5  RingBuf_peek                                                      
00007129  RingBuf_put                                                       
UNDEFED   SHT$$INIT_ARRAY$$Base                                             
UNDEFED   SHT$$INIT_ARRAY$$Limit                                            
00008975  SysCtlPWMClockSet                                                 
000079c5  SysCtlPeripheralEnable                                            
20002d98  Timer                                                             
00008df5  UARTCharGet                                                       
00008c5b  UARTCharGetNonBlocking                                            
00008dff  UARTCharPut                                                       
00008c69  UARTCharPutNonBlocking                                            
00007399  UARTConfigSetExpClk                                               
00008559  UARTDisable                                                       
00008989  UARTEnable                                                        
00006433  UARTFIFOLevelSet                                                  
00008ce1  UARTFlowControlSet                                                
00002c1d  UARTIntClear                                                      
00008e09  UARTIntDisable                                                    
00008e67  UARTIntEnable                                                     
00008e13  UARTIntStatus                                                     
00008ae3  UARTRxErrorClear                                                  
00008e6f  UARTRxErrorGet                                                    
00006d51  UARTTiva_close                                                    
00005411  UARTTiva_control                                                  
0000acc0  UARTTiva_fxnTable                                                 
00008ced  UARTTiva_init                                                     
000021a5  UARTTiva_open                                                     
000074e1  UARTTiva_read                                                     
00007959  UARTTiva_readCancel                                               
00004f63  UARTTiva_readPolling                                              
0000512b  UARTTiva_write                                                    
00006c11  UARTTiva_writeCancel                                              
0000741d  UARTTiva_writePolling                                             
000087cd  UART_Params_init                                                  
0000ad34  UART_config                                                       
0000ad58  UART_defaultParams                                                
000077cd  UART_init                                                         
00007c9d  UART_open                                                         
00008e1d  UART_read                                                         
00008e27  UART_write                                                        
20002de0  USBSerial_uart                                                    
00000000  __ASM__                                                           
20002a88  __CIOBUF_                                                         
00000062  __ISA__                                                           
00000075  __PLAT__                                                          
20003540  __STACK_END                                                       
00000300  __STACK_SIZE                                                      
00000096  __TARG__                                                          
0000b3c8  __TI_CINIT_Base                                                   
0000b3e0  __TI_CINIT_Limit                                                  
0000b3ac  __TI_Handler_Table_Base                                           
0000b3b8  __TI_Handler_Table_Limit                                          
00004ced  __TI_auto_init                                                    
00005fdd  __TI_decompress_lzss                                              
00008c77  __TI_decompress_none                                              
ffffffff  __TI_pprof_out_hndl                                               
00000041  __TI_printfi                                                      
ffffffff  __TI_prof_data_size                                               
ffffffff  __TI_prof_data_start                                              
000079f9  __TI_readmsg                                                      
0000b1d8  __TI_static_base__                                                
00007805  __TI_writemsg                                                     
00008d11  __TI_zero_init                                                    
000000bc  __TRDR__                                                          
0000563d  __aeabi_cdcmpeq                                                   
0000563d  __aeabi_cdcmple                                                   
000056c3  __aeabi_cdrcmple                                                  
00005c0f  __aeabi_d2f                                                       
00006fbd  __aeabi_d2iz                                                      
000071b5  __aeabi_d2uiz                                                     
00002787  __aeabi_dadd                                                      
000033ed  __aeabi_ddiv                                                      
00003ca9  __aeabi_dmul                                                      
0000277d  __aeabi_dsub                                                      
00008e79  __aeabi_errno_addr                                                
0000783d  __aeabi_f2d                                                       
00007f3f  __aeabi_i2d                                                       
00003653  __aeabi_idiv0                                                     
00003653  __aeabi_ldiv0                                                     
00005a41  __aeabi_memclr                                                    
00005a41  __aeabi_memclr4                                                   
00005a41  __aeabi_memclr8                                                   
00004e2d  __aeabi_memcpy                                                    
00004e2d  __aeabi_memcpy4                                                   
00004e2d  __aeabi_memcpy8                                                   
00005a43  __aeabi_memset                                                    
00005a43  __aeabi_memset4                                                   
00005a43  __aeabi_memset8                                                   
0000833d  __aeabi_ui2d                                                      
00007521  __aeabi_uidiv                                                     
00007521  __aeabi_uidivmod                                                  
00005095  __aeabi_uldivmod                                                  
ffffffff  __binit__                                                         
ffffffff  __c_args__                                                        
20003240  __stack                                                           
000087e5  _args_main                                                        
00006671  _c_int00                                                          
0000a76c  _ctypes_                                                          
20003190  _lock                                                             
00000a9f  _nop                                                              
00008cf9  _register_lock                                                    
00008d05  _register_unlock                                                  
20003194  _unlock                                                           
00002d85  abort                                                             
00008abd  atof                                                              
00006d9d  atoi                                                              
ffffffff  binit                                                             
20002de4  blinkySem                                                         
0000769d  blinkyTask                                                        
20002de8  blueSmurf_uart                                                    
20002dec  brake                                                             
20002df0  bufCount                                                          
00006de9  copy_in                                                           
0000899d  copysign                                                          
0000899d  copysignl                                                         
200030c4  curState                                                          
20002df4  dirL                                                              
20002df8  dirR                                                              
20002dfc  disFront                                                          
20002e00  disRight                                                          
00004ba5  distanceTask                                                      
20002e04  dutyPA6                                                           
20002e08  dutyPA7                                                           
20003220  errno                                                             
00006045  error2Buf                                                         
00006179  frexp                                                             
00006179  frexpl                                                            
20003198  gpioCallbackFunctions                                             
200030e0  gpioPinConfigs                                                    
0000388d  ldexp                                                             
0000388d  ldexpl                                                            
00006929  ltoa                                                              
00001a61  main                                                              
20003224  main_func_sp                                                      
200030c8  maxPWM                                                            
00008591  memccpy                                                           
00004e2d  memcpy                                                            
00005a49  memset                                                            
20002dc4  parmbuf                                                           
20002e10  pidSem                                                            
20002cb8  ping                                                              
200030d4  pingpong                                                          
20002d08  pong                                                              
00004c49  pwmMotorTask                                                      
20002e14  pwmSem                                                            
0000afb4  pwmTivaHWAttrs                                                    
20002db4  pwmTivaObjects                                                    
20002e18  reflSem                                                           
00004699  reflectanceHWI                                                    
00004179  reflectanceTask                                                   
00001331  robotStateTask                                                    
0000388d  scalbn                                                            
0000388d  scalbnl                                                           
20002e1c  sendSem                                                           
00004261  sendTask                                                          
00007561  sprintf                                                           
200030cc  startTime                                                         
20002e20  stateSem                                                          
200030d0  stopTime                                                          
000088f1  strchr                                                            
000089b1  strlen                                                            
00000aa1  strtod                                                            
00000aa1  strtold                                                           
20000360  taskStack                                                         
200026c0  taskStruct                                                        
0000b07c  ti_catalog_arm_cortexm4_tiva_ce_Boot_A_mustUseEnhancedClockMode__C
0000b080  ti_catalog_arm_cortexm4_tiva_ce_Boot_Module__diagsEnabled__C      
0000b084  ti_catalog_arm_cortexm4_tiva_ce_Boot_Module__diagsIncluded__C     
0000b088  ti_catalog_arm_cortexm4_tiva_ce_Boot_Module__diagsMask__C         
0000a86e  ti_catalog_arm_cortexm4_tiva_ce_Boot_Module__id__C                
00008ca5  ti_catalog_arm_cortexm4_tiva_ce_Boot_init__I                      
00003aa9  ti_catalog_arm_cortexm4_tiva_ce_Boot_sysCtlClockSetI__I           
00004ffd  ti_catalog_arm_cortexm4_tiva_ce_Boot_sysCtlClockSet__E            
00008e3b  ti_catalog_arm_cortexm4_tiva_ce_Boot_sysCtlDelayI__I              
200030a0  ti_sysbios_BIOS_Module__state__V                                  
00008719  ti_sysbios_BIOS_RtsGateProxy_Handle__label__S                     
000081cd  ti_sysbios_BIOS_RtsGateProxy_Object__delete__S                    
0000302d  ti_sysbios_BIOS_RtsGateProxy_enter__E                             
0000399d  ti_sysbios_BIOS_RtsGateProxy_leave__E                             
00008f09  ti_sysbios_BIOS_RtsGateProxy_query__E                             
00007ccd  ti_sysbios_BIOS_atExitFunc__I                                     
0000813d  ti_sysbios_BIOS_errorRaiseHook__I                                 
00008907  ti_sysbios_BIOS_exitFunc__I                                       
00008b51  ti_sysbios_BIOS_getCpuFreq__E                                     
00004ffb  ti_sysbios_BIOS_nullFunc__I                                       
00008161  ti_sysbios_BIOS_registerRTSLock__I                                
00008185  ti_sysbios_BIOS_removeRTSLock__I                                  
0000835d  ti_sysbios_BIOS_rtsLock__I                                        
00008815  ti_sysbios_BIOS_rtsUnlock__I                                      
00008b61  ti_sysbios_BIOS_setThreadType__E                                  
000081a9  ti_sysbios_BIOS_startFunc__I                                      
00008b71  ti_sysbios_BIOS_start__E                                          
0000b08c  ti_sysbios_family_arm_lm4_Timer_E_cannotSupport__C                
0000b090  ti_sysbios_family_arm_lm4_Timer_E_invalidTimer__C                 
0000b094  ti_sysbios_family_arm_lm4_Timer_E_noaltclk__C                     
0000b098  ti_sysbios_family_arm_lm4_Timer_E_notAvailable__C                 
00006721  ti_sysbios_family_arm_lm4_Timer_Instance_finalize__E              
00001f89  ti_sysbios_family_arm_lm4_Timer_Instance_init__E                  
20003014  ti_sysbios_family_arm_lm4_Timer_Module_State_0_device__A          
20003130  ti_sysbios_family_arm_lm4_Timer_Module_State_0_handles__A         
0000b04e  ti_sysbios_family_arm_lm4_Timer_Module__id__C                     
200031a0  ti_sysbios_family_arm_lm4_Timer_Module__root__V                   
0000882d  ti_sysbios_family_arm_lm4_Timer_Module__startupDone__F            
0000882d  ti_sysbios_family_arm_lm4_Timer_Module__startupDone__S            
20003178  ti_sysbios_family_arm_lm4_Timer_Module__state__V                  
000061e1  ti_sysbios_family_arm_lm4_Timer_Module_startup__E                 
0000ae74  ti_sysbios_family_arm_lm4_Timer_Object__DESC__C                   
0000abb8  ti_sysbios_family_arm_lm4_Timer_Object__PARAMS__C                 
00005ced  ti_sysbios_family_arm_lm4_Timer_Object__create__S                 
0000837d  ti_sysbios_family_arm_lm4_Timer_Object__delete__S                 
20002f68  ti_sysbios_family_arm_lm4_Timer_Object__table__V                  
0000b09c  ti_sysbios_family_arm_lm4_Timer_anyMask__C                        
0000b0a0  ti_sysbios_family_arm_lm4_Timer_disableFunc__C                    
00005851  ti_sysbios_family_arm_lm4_Timer_disableTiva__I                    
0000b0a4  ti_sysbios_family_arm_lm4_Timer_enableFunc__C                     
00007009  ti_sysbios_family_arm_lm4_Timer_enableTimers__I                   
00004af9  ti_sysbios_family_arm_lm4_Timer_enableTiva__I                     
000089c9  ti_sysbios_family_arm_lm4_Timer_getCount__E                       
00008d21  ti_sysbios_family_arm_lm4_Timer_getMaxTicks__E                    
000069d1  ti_sysbios_family_arm_lm4_Timer_initDevice__I                     
000071f9  ti_sysbios_family_arm_lm4_Timer_isrStub__E                        
00008e89  ti_sysbios_family_arm_lm4_Timer_masterDisable__I                  
00004345  ti_sysbios_family_arm_lm4_Timer_masterEnable__I                   
0000b0a8  ti_sysbios_family_arm_lm4_Timer_numTimerDevices__C                
00007a31  ti_sysbios_family_arm_lm4_Timer_setPeriodMicroSecs__E             
000039a1  ti_sysbios_family_arm_lm4_Timer_start__E                          
0000b0ac  ti_sysbios_family_arm_lm4_Timer_startupNeeded__C                  
000075a1  ti_sysbios_family_arm_lm4_Timer_startup__E                        
00007d01  ti_sysbios_family_arm_lm4_Timer_stop__E                           
0000b1bc  ti_sysbios_family_arm_lm4_Timer_supportsAltclk__C                 
000082f9  ti_sysbios_family_arm_lm4_Timer_write__I                          
0000b0b0  ti_sysbios_family_arm_m3_Hwi_E_NMI__C                             
0000b0b4  ti_sysbios_family_arm_m3_Hwi_E_alreadyDefined__C                  
0000b0b8  ti_sysbios_family_arm_m3_Hwi_E_busFault__C                        
0000b0bc  ti_sysbios_family_arm_m3_Hwi_E_debugMon__C                        
0000b0c0  ti_sysbios_family_arm_m3_Hwi_E_hardFault__C                       
0000b0c4  ti_sysbios_family_arm_m3_Hwi_E_memFault__C                        
0000b0c8  ti_sysbios_family_arm_m3_Hwi_E_noIsr__C                           
0000b0cc  ti_sysbios_family_arm_m3_Hwi_E_reserved__C                        
0000b0d0  ti_sysbios_family_arm_m3_Hwi_E_svCall__C                          
0000b0d4  ti_sysbios_family_arm_m3_Hwi_E_usageFault__C                      
000086e5  ti_sysbios_family_arm_m3_Hwi_Handle__label__S                     
00007a69  ti_sysbios_family_arm_m3_Hwi_Instance_finalize__E                 
000051c1  ti_sysbios_family_arm_m3_Hwi_Instance_init__E                     
20003216  ti_sysbios_family_arm_m3_Hwi_Module_State_0_excActive__A          
20003228  ti_sysbios_family_arm_m3_Hwi_Module_State_0_excContext__A         
2000322c  ti_sysbios_family_arm_m3_Hwi_Module_State_0_excStack__A           
0000b1be  ti_sysbios_family_arm_m3_Hwi_Module__id__C                        
200031a8  ti_sysbios_family_arm_m3_Hwi_Module__root__V                      
00008845  ti_sysbios_family_arm_m3_Hwi_Module__startupDone__F               
00008845  ti_sysbios_family_arm_m3_Hwi_Module__startupDone__S               
20002fe0  ti_sysbios_family_arm_m3_Hwi_Module__state__V                     
00006c61  ti_sysbios_family_arm_m3_Hwi_Module_startup__E                    
0000b0d8  ti_sysbios_family_arm_m3_Hwi_NUM_INTERRUPTS__C                    
0000ae94  ti_sysbios_family_arm_m3_Hwi_Object__DESC__C                      
0000ac30  ti_sysbios_family_arm_m3_Hwi_Object__PARAMS__C                    
0000b0dc  ti_sysbios_family_arm_m3_Hwi_Object__count__C                     
0000839d  ti_sysbios_family_arm_m3_Hwi_Object__delete__S                    
000085ad  ti_sysbios_family_arm_m3_Hwi_Object__destruct__S                  
000089dd  ti_sysbios_family_arm_m3_Hwi_Object__get__S                       
20003148  ti_sysbios_family_arm_m3_Hwi_Object__table__V                     
00008d2d  ti_sysbios_family_arm_m3_Hwi_Params__init__S                      
0000b0e0  ti_sysbios_family_arm_m3_Hwi_ccr__C                               
00006779  ti_sysbios_family_arm_m3_Hwi_construct                            
00006245  ti_sysbios_family_arm_m3_Hwi_create                               
00004425  ti_sysbios_family_arm_m3_Hwi_delete                               
000044fd  ti_sysbios_family_arm_m3_Hwi_destruct                             
00008d39  ti_sysbios_family_arm_m3_Hwi_disableFxn__E                        
00007051  ti_sysbios_family_arm_m3_Hwi_disableInterrupt__E                  
000062a9  ti_sysbios_family_arm_m3_Hwi_dispatchC__I                         
20002360  ti_sysbios_family_arm_m3_Hwi_dispatchTable                        
00003f95  ti_sysbios_family_arm_m3_Hwi_dispatch__I                          
00008e91  ti_sysbios_family_arm_m3_Hwi_doSwiRestore__I                      
00008ea9  ti_sysbios_family_arm_m3_Hwi_doTaskRestore__I                     
00007099  ti_sysbios_family_arm_m3_Hwi_enableInterrupt__E                   
00002939  ti_sysbios_family_arm_m3_Hwi_excBusFault__I                       
00004759  ti_sysbios_family_arm_m3_Hwi_excDebugMon__I                       
00000f01  ti_sysbios_family_arm_m3_Hwi_excDumpRegs__I                       
000083bd  ti_sysbios_family_arm_m3_Hwi_excHandlerAsm__I                     
0000b0e4  ti_sysbios_family_arm_m3_Hwi_excHandlerFunc__C                    
000023b1  ti_sysbios_family_arm_m3_Hwi_excHandlerMax__I                     
000083e1  ti_sysbios_family_arm_m3_Hwi_excHandler__I                        
00004819  ti_sysbios_family_arm_m3_Hwi_excHardFault__I                      
0000b05c  ti_sysbios_family_arm_m3_Hwi_excHookFuncs__A                      
0000b0e8  ti_sysbios_family_arm_m3_Hwi_excHookFuncs__C                      
00003031  ti_sysbios_family_arm_m3_Hwi_excMemFault__I                       
00007aa1  ti_sysbios_family_arm_m3_Hwi_excNmi__I                            
00007879  ti_sysbios_family_arm_m3_Hwi_excNoIsr__I                          
000070e1  ti_sysbios_family_arm_m3_Hwi_excReserved__I                       
000076d9  ti_sysbios_family_arm_m3_Hwi_excSvCall__I                         
00002c21  ti_sysbios_family_arm_m3_Hwi_excUsageFault__I                     
00007241  ti_sysbios_family_arm_m3_Hwi_getStackInfo__E                      
00005259  ti_sysbios_family_arm_m3_Hwi_initNVIC__E                          
000067d1  ti_sysbios_family_arm_m3_Hwi_initStacks__E                        
0000b0ec  ti_sysbios_family_arm_m3_Hwi_nullIsrFunc__C                       
e000e000  ti_sysbios_family_arm_m3_Hwi_nvic                                 
000080f1  ti_sysbios_family_arm_m3_Hwi_pendSV__I                            
00005749  ti_sysbios_family_arm_m3_Hwi_postInit__I                          
0000b0f0  ti_sysbios_family_arm_m3_Hwi_priGroup__C                          
20000000  ti_sysbios_family_arm_m3_Hwi_ramVectors                           
00000000  ti_sysbios_family_arm_m3_Hwi_resetVectors                         
00008eb1  ti_sysbios_family_arm_m3_Hwi_restoreFxn__E                        
00008115  ti_sysbios_family_arm_m3_Hwi_return                               
00008e99  ti_sysbios_family_arm_m3_Hwi_startup__E                           
000089f1  ti_sysbios_family_arm_m3_Hwi_switchFromBootStack__E               
00004815  ti_sysbios_family_arm_m3_TaskSupport_Module__startupDone__S       
0000549d  ti_sysbios_family_arm_m3_TaskSupport_buildTaskStack               
00008d49  ti_sysbios_family_arm_m3_TaskSupport_getStackAlignment__E         
00008b81  ti_sysbios_family_arm_m3_TaskSupport_glue                         
0000b0f4  ti_sysbios_family_arm_m3_TaskSupport_stackAlignment__C            
00007d31  ti_sysbios_family_arm_m3_TaskSupport_start__E                     
0000885d  ti_sysbios_family_arm_m3_TaskSupport_swap__E                      
0000853b  ti_sysbios_family_xxx_Hwi_switchAndRunFunc                        
000086ff  ti_sysbios_gates_GateHwi_Handle__label__S                         
00008f19  ti_sysbios_gates_GateHwi_Instance_init__E                         
0000ad7c  ti_sysbios_gates_GateHwi_Module__FXNS__C                          
200031b0  ti_sysbios_gates_GateHwi_Module__root__V                          
0000aeb4  ti_sysbios_gates_GateHwi_Object__DESC__C                          
0000afcc  ti_sysbios_gates_GateHwi_Object__PARAMS__C                        
00007d61  ti_sysbios_gates_GateHwi_Object__create__S                        
00008401  ti_sysbios_gates_GateHwi_Object__delete__S                        
20003230  ti_sysbios_gates_GateHwi_Object__table__V                         
00008d59  ti_sysbios_gates_GateHwi_enter__E                                 
00008eb9  ti_sysbios_gates_GateHwi_leave__E                                 
00008f01  ti_sysbios_gates_GateHwi_query__E                                 
00008719  ti_sysbios_gates_GateMutex_Handle__label__S                       
0000b0f8  ti_sysbios_gates_GateMutex_Instance_State_sem__O                  
00008b91  ti_sysbios_gates_GateMutex_Instance_finalize__E                   
000085c9  ti_sysbios_gates_GateMutex_Instance_init__E                       
0000ada0  ti_sysbios_gates_GateMutex_Module__FXNS__C                        
200031b8  ti_sysbios_gates_GateMutex_Module__root__V                        
0000aed4  ti_sysbios_gates_GateMutex_Object__DESC__C                        
0000afe4  ti_sysbios_gates_GateMutex_Object__PARAMS__C                      
00007d91  ti_sysbios_gates_GateMutex_Object__create__S                      
000081cd  ti_sysbios_gates_GateMutex_Object__delete__S                      
20002fa8  ti_sysbios_gates_GateMutex_Object__table__V                       
00007dc1  ti_sysbios_gates_GateMutex_enter__E                               
00008879  ti_sysbios_gates_GateMutex_leave__E                               
00008f09  ti_sysbios_gates_GateMutex_query__E                               
000086e5  ti_sysbios_hal_Hwi_HwiProxy_Handle__label__S                      
00008845  ti_sysbios_hal_Hwi_HwiProxy_Module__startupDone__S                
0000839d  ti_sysbios_hal_Hwi_HwiProxy_Object__delete__S                     
00008d2d  ti_sysbios_hal_Hwi_HwiProxy_Params__init__S                       
00007051  ti_sysbios_hal_Hwi_HwiProxy_disableInterrupt__E                   
00008d39  ti_sysbios_hal_Hwi_HwiProxy_disable__E                            
00007099  ti_sysbios_hal_Hwi_HwiProxy_enableInterrupt__E                    
00007241  ti_sysbios_hal_Hwi_HwiProxy_getStackInfo__E                       
00008eb1  ti_sysbios_hal_Hwi_HwiProxy_restore__E                            
00008e99  ti_sysbios_hal_Hwi_HwiProxy_startup__E                            
000089f1  ti_sysbios_hal_Hwi_HwiProxy_switchFromBootStack__E                
00008ad1  ti_sysbios_hal_Hwi_Module_startup__E                              
00007051  ti_sysbios_hal_Hwi_disableInterrupt__E                            
00007099  ti_sysbios_hal_Hwi_enableInterrupt__E                             
00007241  ti_sysbios_hal_Hwi_getStackInfo__E                                
00007ba9  ti_sysbios_hal_Hwi_initStack                                      
00008e99  ti_sysbios_hal_Hwi_startup__E                                     
000089f1  ti_sysbios_hal_Hwi_switchFromBootStack__E                         
00008e41  ti_sysbios_hal_Timer_Instance_finalize__E                         
000080a1  ti_sysbios_hal_Timer_Instance_init__E                             
200031c0  ti_sysbios_hal_Timer_Module__root__V                              
00008ae9  ti_sysbios_hal_Timer_Module_startup__E                            
0000aef4  ti_sysbios_hal_Timer_Object__DESC__C                              
0000ac60  ti_sysbios_hal_Timer_Object__PARAMS__C                            
00008d65  ti_sysbios_hal_Timer_Params__init__S                              
0000882d  ti_sysbios_hal_Timer_TimerProxy_Module__startupDone__S            
00008ba1  ti_sysbios_hal_Timer_TimerProxy_Object__create__S                 
0000837d  ti_sysbios_hal_Timer_TimerProxy_Object__delete__S                 
000085e5  ti_sysbios_hal_Timer_TimerProxy_create                            
000048d5  ti_sysbios_hal_Timer_TimerProxy_delete                            
00005255  ti_sysbios_hal_Timer_TimerProxy_getCount__E                       
000052ed  ti_sysbios_hal_Timer_TimerProxy_start__E                          
000075a1  ti_sysbios_hal_Timer_TimerProxy_startup__E                        
000061dd  ti_sysbios_hal_Timer_TimerProxy_stop__E                           
0000630d  ti_sysbios_hal_Timer_create                                       
00008ec1  ti_sysbios_hal_Timer_getCount__E                                  
00008ec9  ti_sysbios_hal_Timer_start__E                                     
000075a1  ti_sysbios_hal_Timer_startup__E                                   
00008ed1  ti_sysbios_hal_Timer_stop__E                                      
0000b0fc  ti_sysbios_heaps_HeapMem_E_memory__C                              
00008733  ti_sysbios_heaps_HeapMem_Handle__label__S                         
20001f60  ti_sysbios_heaps_HeapMem_Instance_State_0_buf__A                  
000075e1  ti_sysbios_heaps_HeapMem_Instance_init__E                         
00008719  ti_sysbios_heaps_HeapMem_Module_GateProxy_Handle__label__S        
000081cd  ti_sysbios_heaps_HeapMem_Module_GateProxy_Object__delete__S       
00006495  ti_sysbios_heaps_HeapMem_Module_GateProxy_enter__E                
000064f5  ti_sysbios_heaps_HeapMem_Module_GateProxy_leave__E                
00008f09  ti_sysbios_heaps_HeapMem_Module_GateProxy_query__E                
0000ace8  ti_sysbios_heaps_HeapMem_Module__FXNS__C                          
0000b100  ti_sysbios_heaps_HeapMem_Module__gateObj__C                       
0000b1c0  ti_sysbios_heaps_HeapMem_Module__id__C                            
200031c8  ti_sysbios_heaps_HeapMem_Module__root__V                          
0000af14  ti_sysbios_heaps_HeapMem_Object__DESC__C                          
0000adc4  ti_sysbios_heaps_HeapMem_Object__PARAMS__C                        
0000b104  ti_sysbios_heaps_HeapMem_Object__count__C                         
00007df1  ti_sysbios_heaps_HeapMem_Object__create__S                        
00008421  ti_sysbios_heaps_HeapMem_Object__delete__S                        
00008a05  ti_sysbios_heaps_HeapMem_Object__get__S                           
20003160  ti_sysbios_heaps_HeapMem_Object__table__V                         
00004429  ti_sysbios_heaps_HeapMem_alloc__E                                 
000058d1  ti_sysbios_heaps_HeapMem_free__E                                  
00006e39  ti_sysbios_heaps_HeapMem_getStats__E                              
00007719  ti_sysbios_heaps_HeapMem_init__I                                  
00008ed9  ti_sysbios_heaps_HeapMem_isBlocking__E                            
0000b108  ti_sysbios_heaps_HeapMem_reqAlign__C                              
00008601  ti_sysbios_knl_Clock_Instance_finalize__E                         
00006439  ti_sysbios_knl_Clock_Instance_init__E                             
0000b10c  ti_sysbios_knl_Clock_Module_State_clockQ__O                       
200031d0  ti_sysbios_knl_Clock_Module__root__V                              
20003074  ti_sysbios_knl_Clock_Module__state__V                             
000081f1  ti_sysbios_knl_Clock_Module_startup__E                            
0000af34  ti_sysbios_knl_Clock_Object__DESC__C                              
0000ade8  ti_sysbios_knl_Clock_Object__PARAMS__C                            
00008441  ti_sysbios_knl_Clock_Object__destruct__S                          
00008d71  ti_sysbios_knl_Clock_Params__init__S                              
0000882d  ti_sysbios_knl_Clock_TimerProxy_Module__startupDone__S            
0000837d  ti_sysbios_knl_Clock_TimerProxy_Object__delete__S                 
00006555  ti_sysbios_knl_Clock_TimerProxy_getMaxTicks__E                    
000075a1  ti_sysbios_knl_Clock_TimerProxy_startup__E                        
00007ad5  ti_sysbios_knl_Clock_construct                                    
000065b5  ti_sysbios_knl_Clock_destruct                                     
00007f99  ti_sysbios_knl_Clock_doTick__I                                    
00008d81  ti_sysbios_knl_Clock_getTicks__E                                  
00008f21  ti_sysbios_knl_Clock_logTick__E                                   
00008219  ti_sysbios_knl_Clock_start__E                                     
00008ee1  ti_sysbios_knl_Clock_stop__E                                      
00005ac1  ti_sysbios_knl_Clock_workFunc__E                                  
0000b064  ti_sysbios_knl_Idle_funcList__C                                   
00008461  ti_sysbios_knl_Idle_run__E                                        
00008ee9  ti_sysbios_knl_Queue_Instance_init__E                             
200031d8  ti_sysbios_knl_Queue_Module__root__V                              
0000af54  ti_sysbios_knl_Queue_Object__DESC__C                              
0000affc  ti_sysbios_knl_Queue_Object__PARAMS__C                            
0000861d  ti_sysbios_knl_Queue_Object__destruct__S                          
00008d8d  ti_sysbios_knl_Queue_Object__get__S                               
00007fc5  ti_sysbios_knl_Queue_construct                                    
00006e35  ti_sysbios_knl_Queue_destruct                                     
00008c89  ti_sysbios_knl_Queue_empty__E                                     
00008639  ti_sysbios_knl_Queue_put__E                                       
0000b110  ti_sysbios_knl_Semaphore_Instance_State_pendQ__O                  
00008bb1  ti_sysbios_knl_Semaphore_Instance_finalize__E                     
00008241  ti_sysbios_knl_Semaphore_Instance_init__E                         
200031e0  ti_sysbios_knl_Semaphore_Module__root__V                          
0000af74  ti_sysbios_knl_Semaphore_Object__DESC__C                          
0000ae0c  ti_sysbios_knl_Semaphore_Object__PARAMS__C                        
00008481  ti_sysbios_knl_Semaphore_Object__destruct__S                      
00008d99  ti_sysbios_knl_Semaphore_Params__init__S                          
00007e21  ti_sysbios_knl_Semaphore_construct                                
00007b09  ti_sysbios_knl_Semaphore_create                                   
00006e85  ti_sysbios_knl_Semaphore_destruct                                 
00007e51  ti_sysbios_knl_Semaphore_pendTimeout__I                           
00002d89  ti_sysbios_knl_Semaphore_pend__E                                  
00006371  ti_sysbios_knl_Semaphore_post__E                                  
0000874d  ti_sysbios_knl_Swi_Handle__label__S                               
20002e24  ti_sysbios_knl_Swi_Module_State_0_readyQ__A                       
200030fc  ti_sysbios_knl_Swi_Module__state__V                               
000080c9  ti_sysbios_knl_Swi_Module_startup__E                              
0000b114  ti_sysbios_knl_Swi_Object__count__C                               
00008a19  ti_sysbios_knl_Swi_Object__get__S                                 
20003044  ti_sysbios_knl_Swi_Object__table__V                               
00008bc1  ti_sysbios_knl_Swi_disable__E                                     
00007289  ti_sysbios_knl_Swi_post__E                                        
00005d59  ti_sysbios_knl_Swi_restoreHwi__E                                  
00007759  ti_sysbios_knl_Swi_restore__E                                     
00006e89  ti_sysbios_knl_Swi_runLoop__I                                     
00006499  ti_sysbios_knl_Swi_run__I                                         
000064f9  ti_sysbios_knl_Swi_schedule__I                                    
00008ef1  ti_sysbios_knl_Swi_startup__E                                     
00008767  ti_sysbios_knl_Task_Handle__label__S                              
000048d9  ti_sysbios_knl_Task_Instance_finalize__E                          
00004501  ti_sysbios_knl_Task_Instance_init__E                              
20003234  ti_sysbios_knl_Task_Module_State_0_idleTask__A                    
20002ea4  ti_sysbios_knl_Task_Module_State_0_readyQ__A                      
0000b118  ti_sysbios_knl_Task_Module_State_inactiveQ__O                     
200031e8  ti_sysbios_knl_Task_Module__root__V                               
20002f24  ti_sysbios_knl_Task_Module__state__V                              
00006559  ti_sysbios_knl_Task_Module_startup__E                             
0000af94  ti_sysbios_knl_Task_Object__DESC__C                               
0000abf4  ti_sysbios_knl_Task_Object__PARAMS__C                             
0000b11c  ti_sysbios_knl_Task_Object__count__C                              
00008c97  ti_sysbios_knl_Task_Object__get__S                                
00008da5  ti_sysbios_knl_Task_Params__init__S                               
00004815  ti_sysbios_knl_Task_SupportProxy_Module__startupDone__S           
00008d49  ti_sysbios_knl_Task_SupportProxy_getStackAlignment__E             
00007d31  ti_sysbios_knl_Task_SupportProxy_start__E                         
0000885d  ti_sysbios_knl_Task_SupportProxy_swap__E                          
0000b120  ti_sysbios_knl_Task_allBlockedFunc__C                             
00006ed9  ti_sysbios_knl_Task_allBlockedFunction__I                         
00006a25  ti_sysbios_knl_Task_construct                                     
0000b124  ti_sysbios_knl_Task_defaultStackHeap__C                           
0000b128  ti_sysbios_knl_Task_defaultStackSize__C                           
00008bd1  ti_sysbios_knl_Task_disable__E                                    
00008659  ti_sysbios_knl_Task_enter__I                                      
00005b31  ti_sysbios_knl_Task_exit__E                                       
0000b12c  ti_sysbios_knl_Task_numConstructedTasks__C                        
000052f1  ti_sysbios_knl_Task_postInit__I                                   
000078b1  ti_sysbios_knl_Task_processVitalTaskFlag__I                       
00008269  ti_sysbios_knl_Task_restoreHwi__E                                 
00007ff1  ti_sysbios_knl_Task_restore__E                                    
00006f29  ti_sysbios_knl_Task_schedule__I                                   
00008891  ti_sysbios_knl_Task_sleepTimeout__I                               
00004349  ti_sysbios_knl_Task_sleep__E                                      
000065b9  ti_sysbios_knl_Task_startCore__E                                  
00008f11  ti_sysbios_knl_Task_startup__E                                    
00008869  ti_sysbios_knl_Task_swapReturn                                    
00007e81  ti_sysbios_knl_Task_unblockI__E                                   
0000ac90  uartRobotHWAttrs                                                  
200028f0  uartRobotObjects                                                  
20002d58  uartRobotRingBuffer                                               
00008afb  wcslen                                                            
0000b130  xdc_runtime_Assert_E_assertFailed__C                              
00006a79  xdc_runtime_Assert_raise__I                                       
0000b134  xdc_runtime_Core_A_initializedParams__C                           
0000b138  xdc_runtime_Core_Module__diagsEnabled__C                          
0000b13c  xdc_runtime_Core_Module__diagsIncluded__C                         
0000b140  xdc_runtime_Core_Module__diagsMask__C                             
0000b1c2  xdc_runtime_Core_Module__id__C                                    
00007b3d  xdc_runtime_Core_assignLabel__I                                   
0000716f  xdc_runtime_Core_assignParams__I                                  
000045cd  xdc_runtime_Core_constructObject__I                               
00003ba9  xdc_runtime_Core_createObject__I                                  
000060ad  xdc_runtime_Core_deleteObject__I                                  
0000b144  xdc_runtime_Error_E_memory__C                                     
0000b148  xdc_runtime_Error_Module__diagsEnabled__C                         
0000b14c  xdc_runtime_Error_Module__diagsIncluded__C                        
0000b150  xdc_runtime_Error_Module__diagsMask__C                            
0000b1c4  xdc_runtime_Error_Module__loggerDefined__C                        
0000b154  xdc_runtime_Error_Module__loggerFxn8__C                           
0000b158  xdc_runtime_Error_Module__loggerObj__C                            
2000323c  xdc_runtime_Error_Module__state__V                                
000088a9  xdc_runtime_Error_check__E                                        
00006ed5  xdc_runtime_Error_getSite__E                                      
00008db1  xdc_runtime_Error_init__E                                         
0000b1c6  xdc_runtime_Error_maxDepth__C                                     
00003775  xdc_runtime_Error_policyDefault__E                                
0000b15c  xdc_runtime_Error_policyFxn__C                                    
0000a86d  xdc_runtime_Error_policy__C                                       
00005e31  xdc_runtime_Error_print__E                                        
0000b160  xdc_runtime_Error_raiseHook__C                                    
00008675  xdc_runtime_Error_raiseX__E                                       
000072cd  xdc_runtime_Error_setX__E                                         
00008dbd  xdc_runtime_Gate_enterSystem__E                                   
00008be1  xdc_runtime_Gate_leaveSystem__E                                   
0000b164  xdc_runtime_IGateProvider_Interface__BASE__C                      
0000b168  xdc_runtime_IHeap_Interface__BASE__C                              
0000b16c  xdc_runtime_IModule_Interface__BASE__C                            
0000b170  xdc_runtime_Log_L_error__C                                        
000086ff  xdc_runtime_Main_Module_GateProxy_Handle__label__S                
00008401  xdc_runtime_Main_Module_GateProxy_Object__delete__S               
00008f01  xdc_runtime_Main_Module_GateProxy_query__E                        
00008733  xdc_runtime_Memory_HeapProxy_Handle__label__S                     
00008421  xdc_runtime_Memory_HeapProxy_Object__delete__S                    
00008e4b  xdc_runtime_Memory_HeapProxy_alloc__E                             
00008e55  xdc_runtime_Memory_HeapProxy_free__E                              
0000b1c8  xdc_runtime_Memory_Module__id__C                                  
20003238  xdc_runtime_Memory_Module__state__V                               
00005e9d  xdc_runtime_Memory_alloc__E                                       
00008dc9  xdc_runtime_Memory_calloc__E                                      
0000b174  xdc_runtime_Memory_defaultHeapInstance__C                         
00008bf1  xdc_runtime_Memory_free__E                                        
00008dd5  xdc_runtime_Memory_getMaxDefaultTypeAlign__E                      
00008691  xdc_runtime_Memory_valloc__E                                      
200031f0  xdc_runtime_Registry_Module__state__V                             
000084a1  xdc_runtime_Registry_findById__E                                  
200031f8  xdc_runtime_Startup_Module__state__V                              
00000001  xdc_runtime_Startup__EXECFXN__C                                   
00000001  xdc_runtime_Startup__RESETFXN__C                                  
0000b178  xdc_runtime_Startup_execImpl__C                                   
00006cb1  xdc_runtime_Startup_exec__E                                       
00008b0d  xdc_runtime_Startup_exec__I                                       
0000b028  xdc_runtime_Startup_firstFxns__A                                  
0000b06c  xdc_runtime_Startup_firstFxns__C                                  
0000b074  xdc_runtime_Startup_lastFxns__C                                   
0000b17c  xdc_runtime_Startup_maxPasses__C                                  
000051bf  xdc_runtime_Startup_reset__I                                      
0000b03c  xdc_runtime_Startup_sfxnRts__A                                    
0000b180  xdc_runtime_Startup_sfxnRts__C                                    
0000ae30  xdc_runtime_Startup_sfxnTab__A                                    
0000b184  xdc_runtime_Startup_sfxnTab__C                                    
00003da5  xdc_runtime_Startup_startMods__I                                  
20002c38  xdc_runtime_SysMin_Module_State_0_outbuf__A                       
20003184  xdc_runtime_SysMin_Module__state__V                               
000084c1  xdc_runtime_SysMin_Module_startup__E                              
00007eb1  xdc_runtime_SysMin_abort__E                                       
0000b188  xdc_runtime_SysMin_bufSize__C                                     
000086ad  xdc_runtime_SysMin_exit__E                                        
0000b1ca  xdc_runtime_SysMin_flushAtExit__C                                 
00007311  xdc_runtime_SysMin_flush__E                                       
0000b18c  xdc_runtime_SysMin_outputFunc__C                                  
0000831b  xdc_runtime_SysMin_output__I                                      
000078e9  xdc_runtime_SysMin_putch__E                                       
00008c01  xdc_runtime_SysMin_ready__E                                       
000086ff  xdc_runtime_System_Module_GateProxy_Handle__label__S              
00008401  xdc_runtime_System_Module_GateProxy_Object__delete__S             
00006f25  xdc_runtime_System_Module_GateProxy_enter__E                      
00007005  xdc_runtime_System_Module_GateProxy_leave__E                      
00008f01  xdc_runtime_System_Module_GateProxy_query__E                      
20003200  xdc_runtime_System_Module_State_0_atexitHandlers__A               
0000b190  xdc_runtime_System_Module__gateObj__C                             
20003208  xdc_runtime_System_Module__state__V                               
00008ef7  xdc_runtime_System_Module_startup__E                              
00007eb1  xdc_runtime_System_SupportProxy_abort__E                          
000086ad  xdc_runtime_System_SupportProxy_exit__E                           
00007311  xdc_runtime_System_SupportProxy_flush__E                          
000078e9  xdc_runtime_System_SupportProxy_putch__E                          
00008c01  xdc_runtime_System_SupportProxy_ready__E                          
0000b194  xdc_runtime_System_abortFxn__C                                    
00002d85  xdc_runtime_System_abortStd__E                                    
000086c9  xdc_runtime_System_abort__E                                       
00008781  xdc_runtime_System_aprintf__E                                     
0000723d  xdc_runtime_System_aprintf_va__F                                  
00007921  xdc_runtime_System_atexit__E                                      
00008117  xdc_runtime_System_avprintf__E                                    
00001715  xdc_runtime_System_doPrint__I                                     
0000b198  xdc_runtime_System_exitFxn__C                                     
00002d85  xdc_runtime_System_exitStd__E                                     
000088c1  xdc_runtime_System_exit__E                                        
0000b19c  xdc_runtime_System_extendFxn__C                                   
00007311  xdc_runtime_System_flush__E                                       
00005c7d  xdc_runtime_System_formatNum__I                                   
0000b1a0  xdc_runtime_System_maxAtexitHandlers__C                           
00003e9d  xdc_runtime_System_printfExtend__I                                
0000879b  xdc_runtime_System_printf__E                                      
00007285  xdc_runtime_System_printf_va__F                                   
00007ee1  xdc_runtime_System_processAtExit__E                               
00008073  xdc_runtime_System_putchar__I                                     
0000828d  xdc_runtime_System_vprintf__E                                     
00008c11  xdc_runtime_System_vsnprintf__E                                   
0000b1cc  xdc_runtime_Text_charCnt__C                                       
00008f28  xdc_runtime_Text_charTab__A                                       
0000b1a4  xdc_runtime_Text_charTab__C                                       
0000801d  xdc_runtime_Text_cordText__E                                      
0000b1ce  xdc_runtime_Text_isLoaded__C                                      
0000b1a8  xdc_runtime_Text_nameEmpty__C                                     
0000b1ac  xdc_runtime_Text_nameStatic__C                                    
0000b1b0  xdc_runtime_Text_nameUnknown__C                                   
0000a938  xdc_runtime_Text_nodeTab__A                                       
0000b1b4  xdc_runtime_Text_nodeTab__C                                       
00007b71  xdc_runtime_Text_printVisFxn__I                                   
00006615  xdc_runtime_Text_putLab__E                                        
00004d8d  xdc_runtime_Text_putMod__E                                        
00004ec9  xdc_runtime_Text_putSite__E                                       
0000b1d0  xdc_runtime_Text_registryModsLastId__C                            
000088d9  xdc_runtime_Text_ropeText__E                                      
0000b1d2  xdc_runtime_Text_unnamedModsLastId__C                             
00006d01  xdc_runtime_Text_visitRope2__I                                    
0000b1b8  xdc_runtime_Text_visitRopeFxn__C                                  
00008c21  xdc_runtime_Text_visitRope__I                                     
00007355  xdc_runtime_Text_xprintf__I                                       


GLOBAL SYMBOLS: SORTED BY Symbol Address 

address   name                                                              
-------   ----                                                              
00000000  __ASM__                                                           
00000000  ti_sysbios_family_arm_m3_Hwi_resetVectors                         
00000001  xdc_runtime_Startup__EXECFXN__C                                   
00000001  xdc_runtime_Startup__RESETFXN__C                                  
00000041  __TI_printfi                                                      
00000062  __ISA__                                                           
00000075  __PLAT__                                                          
00000096  __TARG__                                                          
000000bc  __TRDR__                                                          
00000300  __STACK_SIZE                                                      
00000a9f  _nop                                                              
00000aa1  strtod                                                            
00000aa1  strtold                                                           
00000f01  ti_sysbios_family_arm_m3_Hwi_excDumpRegs__I                       
00001331  robotStateTask                                                    
00001715  xdc_runtime_System_doPrint__I                                     
00001a61  main                                                              
00001f89  ti_sysbios_family_arm_lm4_Timer_Instance_init__E                  
000021a5  UARTTiva_open                                                     
000023b1  ti_sysbios_family_arm_m3_Hwi_excHandlerMax__I                     
0000277d  __aeabi_dsub                                                      
00002787  __aeabi_dadd                                                      
00002933  GPIOIntClear                                                      
00002939  ti_sysbios_family_arm_m3_Hwi_excBusFault__I                       
00002aad  PWMTiva_open                                                      
00002c1d  UARTIntClear                                                      
00002c21  ti_sysbios_family_arm_m3_Hwi_excUsageFault__I                     
00002d85  C$$EXIT                                                           
00002d85  abort                                                             
00002d85  xdc_runtime_System_abortStd__E                                    
00002d85  xdc_runtime_System_exitStd__E                                     
00002d89  ti_sysbios_knl_Semaphore_pend__E                                  
00002edd  GPIO_setConfig                                                    
0000302d  ti_sysbios_BIOS_RtsGateProxy_enter__E                             
00003031  ti_sysbios_family_arm_m3_Hwi_excMemFault__I                       
000032b5  PIDTask                                                           
000033ed  __aeabi_ddiv                                                      
00003523  GPIOPadConfigSet                                                  
00003653  __aeabi_idiv0                                                     
00003653  __aeabi_ldiv0                                                     
00003775  xdc_runtime_Error_policyDefault__E                                
0000388d  ldexp                                                             
0000388d  ldexpl                                                            
0000388d  scalbn                                                            
0000388d  scalbnl                                                           
0000399d  ti_sysbios_BIOS_RtsGateProxy_leave__E                             
000039a1  ti_sysbios_family_arm_lm4_Timer_start__E                          
00003aa9  ti_catalog_arm_cortexm4_tiva_ce_Boot_sysCtlClockSetI__I           
00003ba9  xdc_runtime_Core_createObject__I                                  
00003ca9  __aeabi_dmul                                                      
00003da5  xdc_runtime_Startup_startMods__I                                  
00003e9d  xdc_runtime_System_printfExtend__I                                
00003f95  ti_sysbios_family_arm_m3_Hwi_dispatch__I                          
00004089  PWMTiva_setDuty                                                   
00004179  reflectanceTask                                                   
00004261  sendTask                                                          
00004345  ti_sysbios_family_arm_lm4_Timer_masterEnable__I                   
00004349  ti_sysbios_knl_Task_sleep__E                                      
00004425  ti_sysbios_family_arm_m3_Hwi_delete                               
00004429  ti_sysbios_heaps_HeapMem_alloc__E                                 
000044fd  ti_sysbios_family_arm_m3_Hwi_destruct                             
00004501  ti_sysbios_knl_Task_Instance_init__E                              
000045cd  xdc_runtime_Core_constructObject__I                               
00004699  reflectanceHWI                                                    
00004759  ti_sysbios_family_arm_m3_Hwi_excDebugMon__I                       
00004815  ti_sysbios_family_arm_m3_TaskSupport_Module__startupDone__S       
00004815  ti_sysbios_knl_Task_SupportProxy_Module__startupDone__S           
00004819  ti_sysbios_family_arm_m3_Hwi_excHardFault__I                      
000048d5  ti_sysbios_hal_Timer_TimerProxy_delete                            
000048d9  ti_sysbios_knl_Task_Instance_finalize__E                          
00004af3  GPIOPinRead                                                       
00004af9  ti_sysbios_family_arm_lm4_Timer_enableTiva__I                     
00004ba5  distanceTask                                                      
00004c49  pwmMotorTask                                                      
00004ced  __TI_auto_init                                                    
00004d8d  xdc_runtime_Text_putMod__E                                        
00004e2d  __aeabi_memcpy                                                    
00004e2d  __aeabi_memcpy4                                                   
00004e2d  __aeabi_memcpy8                                                   
00004e2d  memcpy                                                            
00004ec9  xdc_runtime_Text_putSite__E                                       
00004f63  UARTTiva_readPolling                                              
00004ffb  ti_sysbios_BIOS_nullFunc__I                                       
00004ffd  ti_catalog_arm_cortexm4_tiva_ce_Boot_sysCtlClockSet__E            
00005095  __aeabi_uldivmod                                                  
0000512b  UARTTiva_write                                                    
000051bf  xdc_runtime_Startup_reset__I                                      
000051c1  ti_sysbios_family_arm_m3_Hwi_Instance_init__E                     
00005255  ti_sysbios_hal_Timer_TimerProxy_getCount__E                       
00005259  ti_sysbios_family_arm_m3_Hwi_initNVIC__E                          
000052ed  ti_sysbios_hal_Timer_TimerProxy_start__E                          
000052f1  ti_sysbios_knl_Task_postInit__I                                   
00005385  GPIO_init                                                         
00005411  UARTTiva_control                                                  
0000549d  ti_sysbios_family_arm_m3_TaskSupport_buildTaskStack               
000055b5  PWMTiva_control                                                   
0000563d  __aeabi_cdcmpeq                                                   
0000563d  __aeabi_cdcmple                                                   
000056c3  __aeabi_cdrcmple                                                  
00005749  ti_sysbios_family_arm_m3_Hwi_postInit__I                          
00005851  ti_sysbios_family_arm_lm4_Timer_disableTiva__I                    
000058d1  ti_sysbios_heaps_HeapMem_free__E                                  
0000594d  ADCSequenceStepConfigure                                          
00005a41  __aeabi_memclr                                                    
00005a41  __aeabi_memclr4                                                   
00005a41  __aeabi_memclr8                                                   
00005a43  __aeabi_memset                                                    
00005a43  __aeabi_memset4                                                   
00005a43  __aeabi_memset8                                                   
00005a49  memset                                                            
00005abb  GPIOPinWrite                                                      
00005ac1  ti_sysbios_knl_Clock_workFunc__E                                  
00005b31  ti_sysbios_knl_Task_exit__E                                       
00005c0f  __aeabi_d2f                                                       
00005c7d  xdc_runtime_System_formatNum__I                                   
00005ced  ti_sysbios_family_arm_lm4_Timer_Object__create__S                 
00005d59  ti_sysbios_knl_Swi_restoreHwi__E                                  
00005e31  xdc_runtime_Error_print__E                                        
00005e9d  xdc_runtime_Memory_alloc__E                                       
00005f09  PWMTiva_close                                                     
00005f75  ROBOT_initADC                                                     
00005fdd  __TI_decompress_lzss                                              
00006045  error2Buf                                                         
000060ad  xdc_runtime_Core_deleteObject__I                                  
00006115  GPIO_hwiIntFxn                                                    
00006179  frexp                                                             
00006179  frexpl                                                            
000061dd  ti_sysbios_hal_Timer_TimerProxy_stop__E                           
000061e1  ti_sysbios_family_arm_lm4_Timer_Module_startup__E                 
00006245  ti_sysbios_family_arm_m3_Hwi_create                               
000062a9  ti_sysbios_family_arm_m3_Hwi_dispatchC__I                         
0000630d  ti_sysbios_hal_Timer_create                                       
00006371  ti_sysbios_knl_Semaphore_post__E                                  
00006433  UARTFIFOLevelSet                                                  
00006439  ti_sysbios_knl_Clock_Instance_init__E                             
00006495  ti_sysbios_heaps_HeapMem_Module_GateProxy_enter__E                
00006499  ti_sysbios_knl_Swi_run__I                                         
000064f5  ti_sysbios_heaps_HeapMem_Module_GateProxy_leave__E                
000064f9  ti_sysbios_knl_Swi_schedule__I                                    
00006555  ti_sysbios_knl_Clock_TimerProxy_getMaxTicks__E                    
00006559  ti_sysbios_knl_Task_Module_startup__E                             
000065b5  ti_sysbios_knl_Clock_destruct                                     
000065b9  ti_sysbios_knl_Task_startCore__E                                  
00006615  xdc_runtime_Text_putLab__E                                        
00006671  _c_int00                                                          
000066c9  HOSTwrite                                                         
00006721  ti_sysbios_family_arm_lm4_Timer_Instance_finalize__E              
00006779  ti_sysbios_family_arm_m3_Hwi_construct                            
000067d1  ti_sysbios_family_arm_m3_Hwi_initStacks__E                        
00006829  GPIOIntTypeSet                                                    
000068d5  ROBOT_initUART                                                    
00006929  ltoa                                                              
000069d1  ti_sysbios_family_arm_lm4_Timer_initDevice__I                     
00006a25  ti_sysbios_knl_Task_construct                                     
00006a79  xdc_runtime_Assert_raise__I                                       
00006b21  GPIO_setCallback                                                  
00006b71  GPIO_toggle                                                       
00006bc1  GPIO_write                                                        
00006c11  UARTTiva_writeCancel                                              
00006c61  ti_sysbios_family_arm_m3_Hwi_Module_startup__E                    
00006cb1  xdc_runtime_Startup_exec__E                                       
00006d01  xdc_runtime_Text_visitRope2__I                                    
00006d51  UARTTiva_close                                                    
00006d9d  atoi                                                              
00006de9  copy_in                                                           
00006e35  ti_sysbios_knl_Queue_destruct                                     
00006e39  ti_sysbios_heaps_HeapMem_getStats__E                              
00006e85  ti_sysbios_knl_Semaphore_destruct                                 
00006e89  ti_sysbios_knl_Swi_runLoop__I                                     
00006ed5  xdc_runtime_Error_getSite__E                                      
00006ed9  ti_sysbios_knl_Task_allBlockedFunction__I                         
00006f25  xdc_runtime_System_Module_GateProxy_enter__E                      
00006f29  ti_sysbios_knl_Task_schedule__I                                   
00006f75  GPIOPinConfigure                                                  
00006fbd  __aeabi_d2iz                                                      
00007005  xdc_runtime_System_Module_GateProxy_leave__E                      
00007009  ti_sysbios_family_arm_lm4_Timer_enableTimers__I                   
00007051  ti_sysbios_family_arm_m3_Hwi_disableInterrupt__E                  
00007051  ti_sysbios_hal_Hwi_HwiProxy_disableInterrupt__E                   
00007051  ti_sysbios_hal_Hwi_disableInterrupt__E                            
00007099  ti_sysbios_family_arm_m3_Hwi_enableInterrupt__E                   
00007099  ti_sysbios_hal_Hwi_HwiProxy_enableInterrupt__E                    
00007099  ti_sysbios_hal_Hwi_enableInterrupt__E                             
000070e1  ti_sysbios_family_arm_m3_Hwi_excReserved__I                       
00007129  RingBuf_put                                                       
0000716f  xdc_runtime_Core_assignParams__I                                  
000071b5  __aeabi_d2uiz                                                     
000071f9  ti_sysbios_family_arm_lm4_Timer_isrStub__E                        
0000723d  xdc_runtime_System_aprintf_va__F                                  
00007241  ti_sysbios_family_arm_m3_Hwi_getStackInfo__E                      
00007241  ti_sysbios_hal_Hwi_HwiProxy_getStackInfo__E                       
00007241  ti_sysbios_hal_Hwi_getStackInfo__E                                
00007285  xdc_runtime_System_printf_va__F                                   
00007289  ti_sysbios_knl_Swi_post__E                                        
000072cd  xdc_runtime_Error_setX__E                                         
00007311  xdc_runtime_SysMin_flush__E                                       
00007311  xdc_runtime_System_SupportProxy_flush__E                          
00007311  xdc_runtime_System_flush__E                                       
00007355  xdc_runtime_Text_xprintf__I                                       
00007399  UARTConfigSetExpClk                                               
0000741d  UARTTiva_writePolling                                             
00007461  ROBOT_initGeneral                                                 
000074a1  RingBuf_get                                                       
000074e1  UARTTiva_read                                                     
00007521  __aeabi_uidiv                                                     
00007521  __aeabi_uidivmod                                                  
00007561  sprintf                                                           
000075a1  ti_sysbios_family_arm_lm4_Timer_startup__E                        
000075a1  ti_sysbios_hal_Timer_TimerProxy_startup__E                        
000075a1  ti_sysbios_hal_Timer_startup__E                                   
000075a1  ti_sysbios_knl_Clock_TimerProxy_startup__E                        
000075e1  ti_sysbios_heaps_HeapMem_Instance_init__E                         
00007621  ADCSequenceConfigure                                              
0000769d  blinkyTask                                                        
000076d9  ti_sysbios_family_arm_m3_Hwi_excSvCall__I                         
00007719  ti_sysbios_heaps_HeapMem_init__I                                  
00007759  ti_sysbios_knl_Swi_restore__E                                     
00007795  PWM_init                                                          
000077cd  UART_init                                                         
00007805  __TI_writemsg                                                     
00007833  C$$IO$$                                                           
0000783d  __aeabi_f2d                                                       
00007879  ti_sysbios_family_arm_m3_Hwi_excNoIsr__I                          
000078b1  ti_sysbios_knl_Task_processVitalTaskFlag__I                       
000078e9  xdc_runtime_SysMin_putch__E                                       
000078e9  xdc_runtime_System_SupportProxy_putch__E                          
00007921  xdc_runtime_System_atexit__E                                      
00007959  UARTTiva_readCancel                                               
00007991  ROBOT_ADC_sample                                                  
000079c5  SysCtlPeripheralEnable                                            
000079f9  __TI_readmsg                                                      
00007a31  ti_sysbios_family_arm_lm4_Timer_setPeriodMicroSecs__E             
00007a69  ti_sysbios_family_arm_m3_Hwi_Instance_finalize__E                 
00007aa1  ti_sysbios_family_arm_m3_Hwi_excNmi__I                            
00007ad5  ti_sysbios_knl_Clock_construct                                    
00007b09  ti_sysbios_knl_Semaphore_create                                   
00007b3d  xdc_runtime_Core_assignLabel__I                                   
00007b71  xdc_runtime_Text_printVisFxn__I                                   
00007ba9  ti_sysbios_hal_Hwi_initStack                                      
00007bdd  GPIO_disableInt                                                   
00007c0d  GPIO_enableInt                                                    
00007c3d  PWMTiva_init                                                      
00007c6d  PWM_open                                                          
00007c9d  UART_open                                                         
00007ccd  ti_sysbios_BIOS_atExitFunc__I                                     
00007d01  ti_sysbios_family_arm_lm4_Timer_stop__E                           
00007d31  ti_sysbios_family_arm_m3_TaskSupport_start__E                     
00007d31  ti_sysbios_knl_Task_SupportProxy_start__E                         
00007d61  ti_sysbios_gates_GateHwi_Object__create__S                        
00007d91  ti_sysbios_gates_GateMutex_Object__create__S                      
00007dc1  ti_sysbios_gates_GateMutex_enter__E                               
00007df1  ti_sysbios_heaps_HeapMem_Object__create__S                        
00007e21  ti_sysbios_knl_Semaphore_construct                                
00007e51  ti_sysbios_knl_Semaphore_pendTimeout__I                           
00007e81  ti_sysbios_knl_Task_unblockI__E                                   
00007eb1  xdc_runtime_SysMin_abort__E                                       
00007eb1  xdc_runtime_System_SupportProxy_abort__E                          
00007ee1  xdc_runtime_System_processAtExit__E                               
00007f11  ADCIntStatus                                                      
00007f3f  __aeabi_i2d                                                       
00007f6d  ROBOT_initPWM                                                     
00007f99  ti_sysbios_knl_Clock_doTick__I                                    
00007fc5  ti_sysbios_knl_Queue_construct                                    
00007ff1  ti_sysbios_knl_Task_restore__E                                    
0000801d  xdc_runtime_Text_cordText__E                                      
00008049  GPIODirModeSet                                                    
00008073  xdc_runtime_System_putchar__I                                     
000080a1  ti_sysbios_hal_Timer_Instance_init__E                             
000080c9  ti_sysbios_knl_Swi_Module_startup__E                              
000080f1  ti_sysbios_family_arm_m3_Hwi_pendSV__I                            
00008115  ti_sysbios_family_arm_m3_Hwi_return                               
00008117  xdc_runtime_System_avprintf__E                                    
0000813d  ti_sysbios_BIOS_errorRaiseHook__I                                 
00008161  ti_sysbios_BIOS_registerRTSLock__I                                
00008185  ti_sysbios_BIOS_removeRTSLock__I                                  
000081a9  ti_sysbios_BIOS_startFunc__I                                      
000081cd  ti_sysbios_BIOS_RtsGateProxy_Object__delete__S                    
000081cd  ti_sysbios_gates_GateMutex_Object__delete__S                      
000081cd  ti_sysbios_heaps_HeapMem_Module_GateProxy_Object__delete__S       
000081f1  ti_sysbios_knl_Clock_Module_startup__E                            
00008219  ti_sysbios_knl_Clock_start__E                                     
00008241  ti_sysbios_knl_Semaphore_Instance_init__E                         
00008269  ti_sysbios_knl_Task_restoreHwi__E                                 
0000828d  xdc_runtime_System_vprintf__E                                     
000082b1  PWMGenConfigure                                                   
000082d3  PWMTiva_getPeriodCounts                                           
000082f9  ti_sysbios_family_arm_lm4_Timer_write__I                          
0000831b  xdc_runtime_SysMin_output__I                                      
0000833d  __aeabi_ui2d                                                      
0000835d  ti_sysbios_BIOS_rtsLock__I                                        
0000837d  ti_sysbios_family_arm_lm4_Timer_Object__delete__S                 
0000837d  ti_sysbios_hal_Timer_TimerProxy_Object__delete__S                 
0000837d  ti_sysbios_knl_Clock_TimerProxy_Object__delete__S                 
0000839d  ti_sysbios_family_arm_m3_Hwi_Object__delete__S                    
0000839d  ti_sysbios_hal_Hwi_HwiProxy_Object__delete__S                     
000083bd  ti_sysbios_family_arm_m3_Hwi_excHandlerAsm__I                     
000083e1  ti_sysbios_family_arm_m3_Hwi_excHandler__I                        
00008401  ti_sysbios_gates_GateHwi_Object__delete__S                        
00008401  xdc_runtime_Main_Module_GateProxy_Object__delete__S               
00008401  xdc_runtime_System_Module_GateProxy_Object__delete__S             
00008421  ti_sysbios_heaps_HeapMem_Object__delete__S                        
00008421  xdc_runtime_Memory_HeapProxy_Object__delete__S                    
00008441  ti_sysbios_knl_Clock_Object__destruct__S                          
00008461  ti_sysbios_knl_Idle_run__E                                        
00008481  ti_sysbios_knl_Semaphore_Object__destruct__S                      
000084a1  xdc_runtime_Registry_findById__E                                  
000084c1  xdc_runtime_SysMin_Module_startup__E                              
000084e1  ADCSequenceDataGet                                                
000084ff  PWMPulseWidthSet                                                  
0000851d  PWMTiva_getPeriodMicroSecs                                        
0000853b  ti_sysbios_family_xxx_Hwi_switchAndRunFunc                        
00008559  UARTDisable                                                       
00008591  memccpy                                                           
000085ad  ti_sysbios_family_arm_m3_Hwi_Object__destruct__S                  
000085c9  ti_sysbios_gates_GateMutex_Instance_init__E                       
000085e5  ti_sysbios_hal_Timer_TimerProxy_create                            
00008601  ti_sysbios_knl_Clock_Instance_finalize__E                         
0000861d  ti_sysbios_knl_Queue_Object__destruct__S                          
00008639  ti_sysbios_knl_Queue_put__E                                       
00008659  ti_sysbios_knl_Task_enter__I                                      
00008675  xdc_runtime_Error_raiseX__E                                       
00008691  xdc_runtime_Memory_valloc__E                                      
000086ad  xdc_runtime_SysMin_exit__E                                        
000086ad  xdc_runtime_System_SupportProxy_exit__E                           
000086c9  xdc_runtime_System_abort__E                                       
000086e5  ti_sysbios_family_arm_m3_Hwi_Handle__label__S                     
000086e5  ti_sysbios_hal_Hwi_HwiProxy_Handle__label__S                      
000086ff  ti_sysbios_gates_GateHwi_Handle__label__S                         
000086ff  xdc_runtime_Main_Module_GateProxy_Handle__label__S                
000086ff  xdc_runtime_System_Module_GateProxy_Handle__label__S              
00008719  ti_sysbios_BIOS_RtsGateProxy_Handle__label__S                     
00008719  ti_sysbios_gates_GateMutex_Handle__label__S                       
00008719  ti_sysbios_heaps_HeapMem_Module_GateProxy_Handle__label__S        
00008733  ti_sysbios_heaps_HeapMem_Handle__label__S                         
00008733  xdc_runtime_Memory_HeapProxy_Handle__label__S                     
0000874d  ti_sysbios_knl_Swi_Handle__label__S                               
00008767  ti_sysbios_knl_Task_Handle__label__S                              
00008781  xdc_runtime_System_aprintf__E                                     
0000879b  xdc_runtime_System_printf__E                                      
000087b5  ADCProcessorTrigger                                               
000087cd  UART_Params_init                                                  
000087e5  _args_main                                                        
00008815  ti_sysbios_BIOS_rtsUnlock__I                                      
0000882d  ti_sysbios_family_arm_lm4_Timer_Module__startupDone__F            
0000882d  ti_sysbios_family_arm_lm4_Timer_Module__startupDone__S            
0000882d  ti_sysbios_hal_Timer_TimerProxy_Module__startupDone__S            
0000882d  ti_sysbios_knl_Clock_TimerProxy_Module__startupDone__S            
00008845  ti_sysbios_family_arm_m3_Hwi_Module__startupDone__F               
00008845  ti_sysbios_family_arm_m3_Hwi_Module__startupDone__S               
00008845  ti_sysbios_hal_Hwi_HwiProxy_Module__startupDone__S                
0000885d  ti_sysbios_family_arm_m3_TaskSupport_swap__E                      
0000885d  ti_sysbios_knl_Task_SupportProxy_swap__E                          
00008869  ti_sysbios_knl_Task_swapReturn                                    
00008879  ti_sysbios_gates_GateMutex_leave__E                               
00008891  ti_sysbios_knl_Task_sleepTimeout__I                               
000088a9  xdc_runtime_Error_check__E                                        
000088c1  xdc_runtime_System_exit__E                                        
000088d9  xdc_runtime_Text_ropeText__E                                      
000088f1  strchr                                                            
00008907  ti_sysbios_BIOS_exitFunc__I                                       
00008961  PWMClockSet                                                       
00008975  SysCtlPWMClockSet                                                 
00008989  UARTEnable                                                        
0000899d  copysign                                                          
0000899d  copysignl                                                         
000089b1  strlen                                                            
000089c9  ti_sysbios_family_arm_lm4_Timer_getCount__E                       
000089dd  ti_sysbios_family_arm_m3_Hwi_Object__get__S                       
000089f1  ti_sysbios_family_arm_m3_Hwi_switchFromBootStack__E               
000089f1  ti_sysbios_hal_Hwi_HwiProxy_switchFromBootStack__E                
000089f1  ti_sysbios_hal_Hwi_switchFromBootStack__E                         
00008a05  ti_sysbios_heaps_HeapMem_Object__get__S                           
00008a19  ti_sysbios_knl_Swi_Object__get__S                                 
00008a2d  GPIOPinTypeADC                                                    
00008a3f  GPIOPinTypeGPIOInput                                              
00008a51  GPIOPinTypePWM                                                    
00008a63  GPIOPinTypeUART                                                   
00008a75  PWMGenPeriodGet                                                   
00008a87  PWMOutputInvert                                                   
00008a99  PWMOutputState                                                    
00008aab  RingBuf_construct                                                 
00008abd  atof                                                              
00008ad1  ti_sysbios_hal_Hwi_Module_startup__E                              
00008ae3  UARTRxErrorClear                                                  
00008ae9  ti_sysbios_hal_Timer_Module_startup__E                            
00008afb  wcslen                                                            
00008b0d  xdc_runtime_Startup_exec__I                                       
00008b1f  PWMGenPeriodSet                                                   
00008b31  PWM_Params_init                                                   
00008b51  ti_sysbios_BIOS_getCpuFreq__E                                     
00008b61  ti_sysbios_BIOS_setThreadType__E                                  
00008b71  ti_sysbios_BIOS_start__E                                          
00008b81  ti_sysbios_family_arm_m3_TaskSupport_glue                         
00008b91  ti_sysbios_gates_GateMutex_Instance_finalize__E                   
00008ba1  ti_sysbios_hal_Timer_TimerProxy_Object__create__S                 
00008bb1  ti_sysbios_knl_Semaphore_Instance_finalize__E                     
00008bc1  ti_sysbios_knl_Swi_disable__E                                     
00008bd1  ti_sysbios_knl_Task_disable__E                                    
00008be1  xdc_runtime_Gate_leaveSystem__E                                   
00008bf1  xdc_runtime_Memory_free__E                                        
00008c01  xdc_runtime_SysMin_ready__E                                       
00008c01  xdc_runtime_System_SupportProxy_ready__E                          
00008c11  xdc_runtime_System_vsnprintf__E                                   
00008c21  xdc_runtime_Text_visitRope__I                                     
00008c31  ADCSequenceEnable                                                 
00008c3f  GPIOIntDisable                                                    
00008c4d  GPIOIntStatus                                                     
00008c5b  UARTCharGetNonBlocking                                            
00008c69  UARTCharPutNonBlocking                                            
00008c77  __TI_decompress_none                                              
00008c89  ti_sysbios_knl_Queue_empty__E                                     
00008c97  ti_sysbios_knl_Task_Object__get__S                                
00008ca5  ti_catalog_arm_cortexm4_tiva_ce_Boot_init__I                      
00008cb1  GPIOIntEnable                                                     
00008cbd  PWMGenDisable                                                     
00008cc9  PWMGenEnable                                                      
00008cd5  RingBuf_peek                                                      
00008ce1  UARTFlowControlSet                                                
00008ced  UARTTiva_init                                                     
00008cf9  _register_lock                                                    
00008d05  _register_unlock                                                  
00008d11  __TI_zero_init                                                    
00008d21  ti_sysbios_family_arm_lm4_Timer_getMaxTicks__E                    
00008d2d  ti_sysbios_family_arm_m3_Hwi_Params__init__S                      
00008d2d  ti_sysbios_hal_Hwi_HwiProxy_Params__init__S                       
00008d39  ti_sysbios_family_arm_m3_Hwi_disableFxn__E                        
00008d39  ti_sysbios_hal_Hwi_HwiProxy_disable__E                            
00008d49  ti_sysbios_family_arm_m3_TaskSupport_getStackAlignment__E         
00008d49  ti_sysbios_knl_Task_SupportProxy_getStackAlignment__E             
00008d59  ti_sysbios_gates_GateHwi_enter__E                                 
00008d65  ti_sysbios_hal_Timer_Params__init__S                              
00008d71  ti_sysbios_knl_Clock_Params__init__S                              
00008d81  ti_sysbios_knl_Clock_getTicks__E                                  
00008d8d  ti_sysbios_knl_Queue_Object__get__S                               
00008d99  ti_sysbios_knl_Semaphore_Params__init__S                          
00008da5  ti_sysbios_knl_Task_Params__init__S                               
00008db1  xdc_runtime_Error_init__E                                         
00008dbd  xdc_runtime_Gate_enterSystem__E                                   
00008dc9  xdc_runtime_Memory_calloc__E                                      
00008dd5  xdc_runtime_Memory_getMaxDefaultTypeAlign__E                      
00008de1  ADCIntClear                                                       
00008deb  PWM_setDuty                                                       
00008df5  UARTCharGet                                                       
00008dff  UARTCharPut                                                       
00008e09  UARTIntDisable                                                    
00008e13  UARTIntStatus                                                     
00008e1d  UART_read                                                         
00008e27  UART_write                                                        
00008e3b  ti_catalog_arm_cortexm4_tiva_ce_Boot_sysCtlDelayI__I              
00008e41  ti_sysbios_hal_Timer_Instance_finalize__E                         
00008e4b  xdc_runtime_Memory_HeapProxy_alloc__E                             
00008e55  xdc_runtime_Memory_HeapProxy_free__E                              
00008e5f  ROBOT_initGPIO                                                    
00008e67  UARTIntEnable                                                     
00008e6f  UARTRxErrorGet                                                    
00008e79  __aeabi_errno_addr                                                
00008e89  ti_sysbios_family_arm_lm4_Timer_masterDisable__I                  
00008e91  ti_sysbios_family_arm_m3_Hwi_doSwiRestore__I                      
00008e99  ti_sysbios_family_arm_m3_Hwi_startup__E                           
00008e99  ti_sysbios_hal_Hwi_HwiProxy_startup__E                            
00008e99  ti_sysbios_hal_Hwi_startup__E                                     
00008ea9  ti_sysbios_family_arm_m3_Hwi_doTaskRestore__I                     
00008eb1  ti_sysbios_family_arm_m3_Hwi_restoreFxn__E                        
00008eb1  ti_sysbios_hal_Hwi_HwiProxy_restore__E                            
00008eb9  ti_sysbios_gates_GateHwi_leave__E                                 
00008ec1  ti_sysbios_hal_Timer_getCount__E                                  
00008ec9  ti_sysbios_hal_Timer_start__E                                     
00008ed1  ti_sysbios_hal_Timer_stop__E                                      
00008ed9  ti_sysbios_heaps_HeapMem_isBlocking__E                            
00008ee1  ti_sysbios_knl_Clock_stop__E                                      
00008ee9  ti_sysbios_knl_Queue_Instance_init__E                             
00008ef1  ti_sysbios_knl_Swi_startup__E                                     
00008ef7  xdc_runtime_System_Module_startup__E                              
00008f01  ti_sysbios_gates_GateHwi_query__E                                 
00008f01  xdc_runtime_Main_Module_GateProxy_query__E                        
00008f01  xdc_runtime_System_Module_GateProxy_query__E                      
00008f09  ti_sysbios_BIOS_RtsGateProxy_query__E                             
00008f09  ti_sysbios_gates_GateMutex_query__E                               
00008f09  ti_sysbios_heaps_HeapMem_Module_GateProxy_query__E                
00008f11  ti_sysbios_knl_Task_startup__E                                    
00008f19  ti_sysbios_gates_GateHwi_Instance_init__E                         
00008f21  ti_sysbios_knl_Clock_logTick__E                                   
00008f28  xdc_runtime_Text_charTab__A                                       
0000a76c  _ctypes_                                                          
0000a86d  xdc_runtime_Error_policy__C                                       
0000a86e  ti_catalog_arm_cortexm4_tiva_ce_Boot_Module__id__C                
0000a938  xdc_runtime_Text_nodeTab__A                                       
0000abb8  ti_sysbios_family_arm_lm4_Timer_Object__PARAMS__C                 
0000abf4  ti_sysbios_knl_Task_Object__PARAMS__C                             
0000ac30  ti_sysbios_family_arm_m3_Hwi_Object__PARAMS__C                    
0000ac60  ti_sysbios_hal_Timer_Object__PARAMS__C                            
0000ac90  uartRobotHWAttrs                                                  
0000acc0  UARTTiva_fxnTable                                                 
0000ace8  ti_sysbios_heaps_HeapMem_Module__FXNS__C                          
0000ad10  PWM_config                                                        
0000ad34  UART_config                                                       
0000ad58  UART_defaultParams                                                
0000ad7c  ti_sysbios_gates_GateHwi_Module__FXNS__C                          
0000ada0  ti_sysbios_gates_GateMutex_Module__FXNS__C                        
0000adc4  ti_sysbios_heaps_HeapMem_Object__PARAMS__C                        
0000ade8  ti_sysbios_knl_Clock_Object__PARAMS__C                            
0000ae0c  ti_sysbios_knl_Semaphore_Object__PARAMS__C                        
0000ae30  xdc_runtime_Startup_sfxnTab__A                                    
0000ae54  PWMTiva_fxnTable                                                  
0000ae70  PWMTiva_MAX_PRESCALAR                                             
0000ae72  PWMTiva_MAX_MATCH_VALUE                                           
0000ae74  ti_sysbios_family_arm_lm4_Timer_Object__DESC__C                   
0000ae94  ti_sysbios_family_arm_m3_Hwi_Object__DESC__C                      
0000aeb4  ti_sysbios_gates_GateHwi_Object__DESC__C                          
0000aed4  ti_sysbios_gates_GateMutex_Object__DESC__C                        
0000aef4  ti_sysbios_hal_Timer_Object__DESC__C                              
0000af14  ti_sysbios_heaps_HeapMem_Object__DESC__C                          
0000af34  ti_sysbios_knl_Clock_Object__DESC__C                              
0000af54  ti_sysbios_knl_Queue_Object__DESC__C                              
0000af74  ti_sysbios_knl_Semaphore_Object__DESC__C                          
0000af94  ti_sysbios_knl_Task_Object__DESC__C                               
0000afb4  pwmTivaHWAttrs                                                    
0000afcc  ti_sysbios_gates_GateHwi_Object__PARAMS__C                        
0000afe4  ti_sysbios_gates_GateMutex_Object__PARAMS__C                      
0000affc  ti_sysbios_knl_Queue_Object__PARAMS__C                            
0000b014  GPIOTiva_config                                                   
0000b028  xdc_runtime_Startup_firstFxns__A                                  
0000b03c  xdc_runtime_Startup_sfxnRts__A                                    
0000b04e  ti_sysbios_family_arm_lm4_Timer_Module__id__C                     
0000b050  PWM_defaultParams                                                 
0000b05c  ti_sysbios_family_arm_m3_Hwi_excHookFuncs__A                      
0000b064  ti_sysbios_knl_Idle_funcList__C                                   
0000b06c  xdc_runtime_Startup_firstFxns__C                                  
0000b074  xdc_runtime_Startup_lastFxns__C                                   
0000b07c  ti_catalog_arm_cortexm4_tiva_ce_Boot_A_mustUseEnhancedClockMode__C
0000b080  ti_catalog_arm_cortexm4_tiva_ce_Boot_Module__diagsEnabled__C      
0000b084  ti_catalog_arm_cortexm4_tiva_ce_Boot_Module__diagsIncluded__C     
0000b088  ti_catalog_arm_cortexm4_tiva_ce_Boot_Module__diagsMask__C         
0000b08c  ti_sysbios_family_arm_lm4_Timer_E_cannotSupport__C                
0000b090  ti_sysbios_family_arm_lm4_Timer_E_invalidTimer__C                 
0000b094  ti_sysbios_family_arm_lm4_Timer_E_noaltclk__C                     
0000b098  ti_sysbios_family_arm_lm4_Timer_E_notAvailable__C                 
0000b09c  ti_sysbios_family_arm_lm4_Timer_anyMask__C                        
0000b0a0  ti_sysbios_family_arm_lm4_Timer_disableFunc__C                    
0000b0a4  ti_sysbios_family_arm_lm4_Timer_enableFunc__C                     
0000b0a8  ti_sysbios_family_arm_lm4_Timer_numTimerDevices__C                
0000b0ac  ti_sysbios_family_arm_lm4_Timer_startupNeeded__C                  
0000b0b0  ti_sysbios_family_arm_m3_Hwi_E_NMI__C                             
0000b0b4  ti_sysbios_family_arm_m3_Hwi_E_alreadyDefined__C                  
0000b0b8  ti_sysbios_family_arm_m3_Hwi_E_busFault__C                        
0000b0bc  ti_sysbios_family_arm_m3_Hwi_E_debugMon__C                        
0000b0c0  ti_sysbios_family_arm_m3_Hwi_E_hardFault__C                       
0000b0c4  ti_sysbios_family_arm_m3_Hwi_E_memFault__C                        
0000b0c8  ti_sysbios_family_arm_m3_Hwi_E_noIsr__C                           
0000b0cc  ti_sysbios_family_arm_m3_Hwi_E_reserved__C                        
0000b0d0  ti_sysbios_family_arm_m3_Hwi_E_svCall__C                          
0000b0d4  ti_sysbios_family_arm_m3_Hwi_E_usageFault__C                      
0000b0d8  ti_sysbios_family_arm_m3_Hwi_NUM_INTERRUPTS__C                    
0000b0dc  ti_sysbios_family_arm_m3_Hwi_Object__count__C                     
0000b0e0  ti_sysbios_family_arm_m3_Hwi_ccr__C                               
0000b0e4  ti_sysbios_family_arm_m3_Hwi_excHandlerFunc__C                    
0000b0e8  ti_sysbios_family_arm_m3_Hwi_excHookFuncs__C                      
0000b0ec  ti_sysbios_family_arm_m3_Hwi_nullIsrFunc__C                       
0000b0f0  ti_sysbios_family_arm_m3_Hwi_priGroup__C                          
0000b0f4  ti_sysbios_family_arm_m3_TaskSupport_stackAlignment__C            
0000b0f8  ti_sysbios_gates_GateMutex_Instance_State_sem__O                  
0000b0fc  ti_sysbios_heaps_HeapMem_E_memory__C                              
0000b100  ti_sysbios_heaps_HeapMem_Module__gateObj__C                       
0000b104  ti_sysbios_heaps_HeapMem_Object__count__C                         
0000b108  ti_sysbios_heaps_HeapMem_reqAlign__C                              
0000b10c  ti_sysbios_knl_Clock_Module_State_clockQ__O                       
0000b110  ti_sysbios_knl_Semaphore_Instance_State_pendQ__O                  
0000b114  ti_sysbios_knl_Swi_Object__count__C                               
0000b118  ti_sysbios_knl_Task_Module_State_inactiveQ__O                     
0000b11c  ti_sysbios_knl_Task_Object__count__C                              
0000b120  ti_sysbios_knl_Task_allBlockedFunc__C                             
0000b124  ti_sysbios_knl_Task_defaultStackHeap__C                           
0000b128  ti_sysbios_knl_Task_defaultStackSize__C                           
0000b12c  ti_sysbios_knl_Task_numConstructedTasks__C                        
0000b130  xdc_runtime_Assert_E_assertFailed__C                              
0000b134  xdc_runtime_Core_A_initializedParams__C                           
0000b138  xdc_runtime_Core_Module__diagsEnabled__C                          
0000b13c  xdc_runtime_Core_Module__diagsIncluded__C                         
0000b140  xdc_runtime_Core_Module__diagsMask__C                             
0000b144  xdc_runtime_Error_E_memory__C                                     
0000b148  xdc_runtime_Error_Module__diagsEnabled__C                         
0000b14c  xdc_runtime_Error_Module__diagsIncluded__C                        
0000b150  xdc_runtime_Error_Module__diagsMask__C                            
0000b154  xdc_runtime_Error_Module__loggerFxn8__C                           
0000b158  xdc_runtime_Error_Module__loggerObj__C                            
0000b15c  xdc_runtime_Error_policyFxn__C                                    
0000b160  xdc_runtime_Error_raiseHook__C                                    
0000b164  xdc_runtime_IGateProvider_Interface__BASE__C                      
0000b168  xdc_runtime_IHeap_Interface__BASE__C                              
0000b16c  xdc_runtime_IModule_Interface__BASE__C                            
0000b170  xdc_runtime_Log_L_error__C                                        
0000b174  xdc_runtime_Memory_defaultHeapInstance__C                         
0000b178  xdc_runtime_Startup_execImpl__C                                   
0000b17c  xdc_runtime_Startup_maxPasses__C                                  
0000b180  xdc_runtime_Startup_sfxnRts__C                                    
0000b184  xdc_runtime_Startup_sfxnTab__C                                    
0000b188  xdc_runtime_SysMin_bufSize__C                                     
0000b18c  xdc_runtime_SysMin_outputFunc__C                                  
0000b190  xdc_runtime_System_Module__gateObj__C                             
0000b194  xdc_runtime_System_abortFxn__C                                    
0000b198  xdc_runtime_System_exitFxn__C                                     
0000b19c  xdc_runtime_System_extendFxn__C                                   
0000b1a0  xdc_runtime_System_maxAtexitHandlers__C                           
0000b1a4  xdc_runtime_Text_charTab__C                                       
0000b1a8  xdc_runtime_Text_nameEmpty__C                                     
0000b1ac  xdc_runtime_Text_nameStatic__C                                    
0000b1b0  xdc_runtime_Text_nameUnknown__C                                   
0000b1b4  xdc_runtime_Text_nodeTab__C                                       
0000b1b8  xdc_runtime_Text_visitRopeFxn__C                                  
0000b1bc  ti_sysbios_family_arm_lm4_Timer_supportsAltclk__C                 
0000b1be  ti_sysbios_family_arm_m3_Hwi_Module__id__C                        
0000b1c0  ti_sysbios_heaps_HeapMem_Module__id__C                            
0000b1c2  xdc_runtime_Core_Module__id__C                                    
0000b1c4  xdc_runtime_Error_Module__loggerDefined__C                        
0000b1c6  xdc_runtime_Error_maxDepth__C                                     
0000b1c8  xdc_runtime_Memory_Module__id__C                                  
0000b1ca  xdc_runtime_SysMin_flushAtExit__C                                 
0000b1cc  xdc_runtime_Text_charCnt__C                                       
0000b1ce  xdc_runtime_Text_isLoaded__C                                      
0000b1d0  xdc_runtime_Text_registryModsLastId__C                            
0000b1d2  xdc_runtime_Text_unnamedModsLastId__C                             
0000b1d8  __TI_static_base__                                                
0000b3ac  __TI_Handler_Table_Base                                           
0000b3b8  __TI_Handler_Table_Limit                                          
0000b3c8  __TI_CINIT_Base                                                   
0000b3e0  __TI_CINIT_Limit                                                  
20000000  ti_sysbios_family_arm_m3_Hwi_ramVectors                           
20000360  taskStack                                                         
20001f60  ti_sysbios_heaps_HeapMem_Instance_State_0_buf__A                  
20002360  ti_sysbios_family_arm_m3_Hwi_dispatchTable                        
200026c0  taskStruct                                                        
200028f0  uartRobotObjects                                                  
20002a88  __CIOBUF_                                                         
20002c38  xdc_runtime_SysMin_Module_State_0_outbuf__A                       
20002cb8  ping                                                              
20002d08  pong                                                              
20002d58  uartRobotRingBuffer                                               
20002d98  Timer                                                             
20002db4  pwmTivaObjects                                                    
20002dc4  parmbuf                                                           
20002dd0  Kd                                                                
20002dd4  Ki                                                                
20002dd8  Kp                                                                
20002ddc  Kpid                                                              
20002de0  USBSerial_uart                                                    
20002de4  blinkySem                                                         
20002de8  blueSmurf_uart                                                    
20002dec  brake                                                             
20002df0  bufCount                                                          
20002df4  dirL                                                              
20002df8  dirR                                                              
20002dfc  disFront                                                          
20002e00  disRight                                                          
20002e04  dutyPA6                                                           
20002e08  dutyPA7                                                           
20002e10  pidSem                                                            
20002e14  pwmSem                                                            
20002e18  reflSem                                                           
20002e1c  sendSem                                                           
20002e20  stateSem                                                          
20002e24  ti_sysbios_knl_Swi_Module_State_0_readyQ__A                       
20002ea4  ti_sysbios_knl_Task_Module_State_0_readyQ__A                      
20002f24  ti_sysbios_knl_Task_Module__state__V                              
20002f68  ti_sysbios_family_arm_lm4_Timer_Object__table__V                  
20002fa8  ti_sysbios_gates_GateMutex_Object__table__V                       
20002fe0  ti_sysbios_family_arm_m3_Hwi_Module__state__V                     
20003014  ti_sysbios_family_arm_lm4_Timer_Module_State_0_device__A          
20003044  ti_sysbios_knl_Swi_Object__table__V                               
20003074  ti_sysbios_knl_Clock_Module__state__V                             
200030a0  ti_sysbios_BIOS_Module__state__V                                  
200030c4  curState                                                          
200030c8  maxPWM                                                            
200030cc  startTime                                                         
200030d0  stopTime                                                          
200030d4  pingpong                                                          
200030e0  gpioPinConfigs                                                    
200030fc  ti_sysbios_knl_Swi_Module__state__V                               
20003130  ti_sysbios_family_arm_lm4_Timer_Module_State_0_handles__A         
20003148  ti_sysbios_family_arm_m3_Hwi_Object__table__V                     
20003160  ti_sysbios_heaps_HeapMem_Object__table__V                         
20003178  ti_sysbios_family_arm_lm4_Timer_Module__state__V                  
20003184  xdc_runtime_SysMin_Module__state__V                               
20003190  _lock                                                             
20003194  _unlock                                                           
20003198  gpioCallbackFunctions                                             
200031a0  ti_sysbios_family_arm_lm4_Timer_Module__root__V                   
200031a8  ti_sysbios_family_arm_m3_Hwi_Module__root__V                      
200031b0  ti_sysbios_gates_GateHwi_Module__root__V                          
200031b8  ti_sysbios_gates_GateMutex_Module__root__V                        
200031c0  ti_sysbios_hal_Timer_Module__root__V                              
200031c8  ti_sysbios_heaps_HeapMem_Module__root__V                          
200031d0  ti_sysbios_knl_Clock_Module__root__V                              
200031d8  ti_sysbios_knl_Queue_Module__root__V                              
200031e0  ti_sysbios_knl_Semaphore_Module__root__V                          
200031e8  ti_sysbios_knl_Task_Module__root__V                               
200031f0  xdc_runtime_Registry_Module__state__V                             
200031f8  xdc_runtime_Startup_Module__state__V                              
20003200  xdc_runtime_System_Module_State_0_atexitHandlers__A               
20003208  xdc_runtime_System_Module__state__V                               
20003216  ti_sysbios_family_arm_m3_Hwi_Module_State_0_excActive__A          
20003220  errno                                                             
20003224  main_func_sp                                                      
20003228  ti_sysbios_family_arm_m3_Hwi_Module_State_0_excContext__A         
2000322c  ti_sysbios_family_arm_m3_Hwi_Module_State_0_excStack__A           
20003230  ti_sysbios_gates_GateHwi_Object__table__V                         
20003234  ti_sysbios_knl_Task_Module_State_0_idleTask__A                    
20003238  xdc_runtime_Memory_Module__state__V                               
2000323c  xdc_runtime_Error_Module__state__V                                
20003240  __stack                                                           
20003540  __STACK_END                                                       
e000e000  ti_sysbios_family_arm_m3_Hwi_nvic                                 
ffffffff  __TI_pprof_out_hndl                                               
ffffffff  __TI_prof_data_size                                               
ffffffff  __TI_prof_data_start                                              
ffffffff  __binit__                                                         
ffffffff  __c_args__                                                        
ffffffff  binit                                                             
UNDEFED   SHT$$INIT_ARRAY$$Base                                             
UNDEFED   SHT$$INIT_ARRAY$$Limit                                            

[719 symbols]
